:020000040800F2
:10000000080C0020B50100081F3300087F300008ED
:100010001D330008551F0008C53800080000000007
:100020000000000000000000000000004B34000849
:100030006D22000800000000493400084D3400081B
:10004000CF010008CF010008CF010008CF01000850
:10005000CF010008CF010008CF010008CF01000840
:10006000CF010008CF010008CF010008CF01000830
:10007000CF010008CF010008CF010008CF01000820
:10008000CF010008CF010008CF010008CF01000810
:10009000CF010008CF010008CF010008CF01000800
:1000A000CF010008CF010008CF010008CF010008F0
:1000B000B1340008B5340008D5340008CF01000879
:1000C000CF010008CF010008CF010008CF010008D0
:1000D000CF01000899380008CF010008CF010008BF
:1000E000CF010008CF010008CF01000800F002F89E
:1000F00000F050F80AA090E8000C82448344AAF172
:100100000107DA4501D100F045F8AFF2090EBAE86F
:100110000F0013F0010F18BFFB1A43F0010318473B
:10012000845C0000A45C0000103A24BF78C878C149
:10013000FAD8520724BF30C830C144BF04680C60ED
:10014000704700000023002400250026103A28BF35
:1001500078C1FBD8520728BF30C148BF0B60704739
:100160001FB59DE8030000F0EBFD00F0CDFD04009D
:100170000020002104F01CFC401C606000200021D5
:1001800004F000FCE06000F065F91FBD10B500F060
:10019000CAF910BD00F0FEF91146FFF7E1FF04F0C7
:1001A000AFF800F09DFD03B4FFF7F0FF03BC00F0D3
:1001B000ABFF00000948804709480047FEE7FEE71B
:1001C000FEE7FEE7FEE7FEE7FEE7FEE7FEE7FEE707
:1001D00004480549054A064B70470000AF34000843
:1001E000ED00000808060020080C00200808002088
:1001F000080800200FB4044910B503AA029800F0C3
:100200007BF810BC5DF814FBFC0400204FF00002EA
:1002100000B5134694469646203922BFA0E80C50FC
:10022000A0E80C50B1F12001BFF4F7AF090728BFD7
:10023000A0E80C5048BF0CC05DF804EB890028BF53
:1002400040F8042B08BF704748BF20F8022B11F07C
:10025000804F18BF00F8012B704700004FF0013CA1
:1002600050F8042B51F8043B9A4221D1A2EB0C0325
:10027000934313EACC1317D150F8042B51F8043BE5
:100280009A4215D1A2EB0C03934313EACC130BD182
:1002900050F8042B51F8043B9A4209D1A2EB0C030D
:1002A000934313EACC13DBD04FF00000704700BF3C
:1002B000D01A01BAB1FA81F101F0180122FA01F065
:1002C000CB40C1F12001DBB2C0B2C01A2CFA01F35D
:1002D000D11A914311EAC311E6D1704770477047B4
:1002E000704710B500F06CF8006810BD10B50446FA
:1002F00000F066F8046010BD074B70B50D467B44F6
:1003000000F071F80446284600F0A0F810B14FF054
:10031000FF3070BD204670BD1F3F00000FB40023AA
:1003200000B589B00CA900910B99CB60214B7B449F
:100330000693214B7B44079304236FF00042CDE9E1
:1003400001321E4A7A446B4608920246002005F0AC
:100350000FFC09B05DF814FB70B506464FF0FF3096
:1003600015460C46324686B00091CDE9010169463A
:100370000020049004A8FFF7D1FF0246049821183A
:1003800025B108B1084600E02046286004980028FE
:100390000DD0002A02DD0098884208D03246081BA2
:1003A00069460094CDE9010404A8FFF7B7FF06B041
:1003B00070BD0000DB000000F300000081000000C1
:1003C00000487047A405002010B5044600F008F965
:1003D0000068005D00F0010010BD000001694A1CCA
:1003E00002610878704700B58FB0CDE90131002176
:1003F000059105497944CDE903101146684600F09E
:100400001EF90FB000BD0000E5FFFFFF426842B1DA
:10041000016811F8013B23B1521EC0E900121846D1
:1004200070470121C160881E704742685AB1C36895
:10043000016843B983688B4205D0491E521CC0E94C
:100440000012002070474FF0FF307047007B00F033
:100450008000704710B542485421FFF7D7FE41484D
:100460005421FFF7D3FE40485421FFF7CFFE3F4908
:100470003B483C4A3F4B08603D490A603A49196095
:10048000531C0365481C1065012008653B48344A2D
:1004900039A1784400F088FB20B9384878440A38FC
:1004A00000F027FC37482F4A35A1784400F07CFB48
:1004B00020B9344878440A3800F01BFC32482A4AF4
:1004C0002FA1784400F070FB20B92F4878440A38F7
:1004D00000F00FFC40232248DC000021224600F0FF
:1004E0003FFB20B125487844543800F002FC1D48F9
:1004F00022464023002100F033FB20B121487844FC
:10050000543800F0F6FB184822461023002100F072
:1005100027FB002806D01C487844BDE81040563818
:1005200000F0E7BB10BD104870B5006D20F001046D
:100530000B4800F0AFFB0B4800F0ACFB0A4800F0A2
:10054000A9FB09E0206D20F00105204600F0A2FB88
:10055000204600F04DF82C46002CF3D170BD000071
:10056000A8040020FC0400205005002018000020F2
:100570001C000020200000207200000040570000F6
:10058000770000002F5700001F57000000487047F9
:10059000A40500207546FFF7F9FFAE460500694641
:1005A000534620F00700854618B020B5FFF710FE2F
:1005B000BDE820404FF000064FF000074FF0000864
:1005C0004FF0000B21F00701AC46ACE8C009ACE8E5
:1005D000C009ACE8C009ACE8C0098D46704700000E
:1005E00010B500F091FB001D10BD00BFC543000019
:1005F00070B50446051F00F083FB0068002C14BF93
:10060000446870BD002C18BFAC423CBF20466468F3
:10061000F8D301680A18AA4218BF456003D12A68B6
:1006200005461144016028684119A1421CBF6C6055
:1006300070BD6168696021680844286070BD2DE95B
:10064000F04106460024D6E90170F5688046304640
:1006500003E04146B847641C3046A8470028F8D15B
:100660002046BDE8F08100002DE9FF4F06468BB023
:100670000878FF2806D0491C2D2805D000244FF00B
:10068000000908E000200CE00124F8E709EB8903E9
:10069000491C00EB43090878FF28F7D114B1C9F1D0
:1006A00000008146107800252C46AA4629462D28B0
:1006B00001D02B2804D1521C2D2813D000208246B3
:1006C0008B461078FF280FD04FF0000C0A21521CE7
:1006D000A5FB017804FB018105FB0C11C5194BEB4F
:1006E0000104EEE70120EAE7002108464FF0000090
:1006F000BAF1000F02D000EB80004008C0F3815730
:10070000012F01DD4FF0FF370E9955EA040009EB88
:1007100001080BD04FF0020918F5FA7F16DA4FEAFC
:10072000CA70002F706008DD012007E04FEACA7030
:10073000C6E900B00FB0BDE8F08F00203060FFF7D1
:100740003FFEC0F800901821084616E0B8F5FA7F81
:1007500018DD002F02DAF748784401E0F6487844C3
:10076000D0E90010C6E9001040EACA707060FFF7D7
:1007700027FEC0F80090142108460FB0BDE8F04FE6
:1007800005F093B9002108464FF00000B8F10001D0
:10079000099002DAC7F1000200E03A4601DAC8F136
:1007A000000106A800F02AFB06AB93E8070003ABA4
:1007B00083E8070044F23E005BEA040100905846DB
:1007C00004D144F21E012C465D460091210C09041F
:1007D000014306D10099240444EA15442D0410393C
:1007E000009104F07F41014306D10099240244EABC
:1007F00015642D020839009104F07041014306D1BF
:100800000099240144EA15742D01091F009104F098
:100810004041014306D10099A40044EA9574AD001B
:10082000891E009104F00041084304D100986D191D
:100830006441401E00904FF001033A466846B8F10B
:10084000000FCDE9014503A902DD01F0CCF901E07B
:1008500001F09FF9BAF1000F04460D4601D084F073
:100860000044002108464FF00000099940F2FF774C
:10087000484010F00C0F07D124F00040284303D06B
:10088000C4F30A50B84212D1FFF79AFDC0F80090A5
:10089000C4F30A50B8420AD1A8487844D0E90010FD
:1008A000C6E9001004F000410843706042E7C6E961
:1008B00000543FE72DE9FF4F1F464FF0000A4FF06D
:1008C000FF38454691B0D7E90146CDF83CA000F08D
:1008D0001BFAC0680168405C1090B96912986D1CE1
:1008E0008847396A814688470028F6D1B9F1FF3F29
:1008F0000AD0002E24F4D06411DDB9F12B0F08D0FA
:10090000B9F12D0F0BD102E0404615B013E744F4C6
:100910008064B96912986D1C8847761E814660050F
:1009200004A901D52D2000E02B20002E01F1010BA0
:100930000DF130088DF810003FDDB9F1690F08D0D6
:10094000B9F1490F05D0B9F16E0F02D0B9F14E0FD0
:100950001CD13B4601A8009580E85002DDE9121247
:100960006FF0020005F008F9C11CCED10EE0B969A4
:1009700012986D1C884781461398761E44F40074C3
:1009800005600F98401C002E0F9016DDB9F1300F56
:10099000EDD0B9F1780F02D0B9F1580F0DD10F9801
:1009A00001280AD13B46CDE90054DDE91212001FAF
:1009B000029605F0DFF8C11CA7D1109989453ED1F8
:1009C00044F0800406E01399681CAAF1010A44F47B
:1009D00000740860B9696D1C1298761E884730282B
:1009E0008146F0D02BE01099894505D1200603D42B
:1009F000761E44F0800418E0484603F020FB08B35C
:100A0000761E0DF123018B4544F4007408D2A9F140
:100A100030000BF8010B200607D5AAF1010003E016
:100A2000200602D40AF101008246A00502D51399DE
:100A3000681C0860B96912986D1C88478146002EB1
:100A4000D1DC53E0002E51DDB9F1650F02D0B9F1D0
:100A5000450F4BD1A00549D5B9696D1C1298761E7A
:100A600024F440748847002E81460CDD2B2804D0E6
:100A7000B9F12D0F07D144F48074B96912986D1C37
:100A80008847761E8146E00501D52D2100E02B2107
:100A900008F8011BCDF8008021E0761E0DF1390128
:100AA000884544F400740CD2A9F1300010F0FF0026
:100AB00088F8000002D10099884509D908F1010899
:100AC00006E0E00501D51E4801E042F20F708246C3
:100AD000B96912986D1C8847814613980560002EED
:100AE00004DD484603F0ABFA0028D6D1F969129824
:100AF0008847FF2053468BF8000088F8000000204C
:100B00000A900B9004AA0CA90AA8FFF7ADFDA00556
:100B100002D46FF00100F8E614F0240F12D0E007C1
:100B20001CD13868DDE90A12031D3B600068C0E98A
:100B3000001213E0705600006256000026550000B7
:100B4000F1D8FFFF0AA9684603F008FAE00705D1CB
:100B50003868009A011D3960006802602846D4E6B2
:100B600070B5C468A50713D0650211D4B2F5807FB3
:100B700009D0B2F5007F06D0B2F5806F08D101230D
:100B800000F1240106E05D1E6FF07F46B54201D3FF
:100B9000012070BD0161C361416024F470611143A3
:100BA000C160002070BD00002DE9F0410C460746F1
:100BB0001646104600F06EF82078611C61280AD0B5
:100BC000722802D077283CD102E00125002405E0FC
:100BD0000225042402E0082448F2020511F8010B62
:100BE0002B2806D0622809D011F8010C74280AD0ED
:100BF0000BE045F0030544F00204EFE745F004057F
:100C000044F00104EAE744F010043846214603F0BA
:100C10003BFA411C15D00021316171604FF4007125
:100C2000F560F1617061200704D530460222002191
:100C300000F056F9306D40F0010030653046BDE8F7
:100C4000F0810020FBE72DE9F0410D460646104CEF
:100C5000206DC10704D0410804D020F00104F7E75B
:100C600022460EE0542000F09AF807000ED0206DC6
:100C700047F001010843542120653846FFF7C6FAC2
:100C80003A4629463046BDE8F0418DE70020D6E7D8
:100C9000A80400202DE9F04704464FF000094FF06A
:100CA000FF37C568D4E90486A80707D0204600F0BE
:100CB000C7F9304603F0CAF9002802DA3846BDE821
:100CC000F087280502D54046FFF792FC4C212046CC
:100CD000FFF79CFA206D20F0010020654846EEE702
:100CE00010B50446AFF300802046BDE81040FFF782
:100CF0005ABA10B500F0EEF9BDE8104000F0E4B9C2
:100D000000487047AC05002000487047C40500202B
:100D1000704770477047704738B504460A46002050
:100D20006946AFF30080002808BF38BD024600992D
:100D3000204600F0F6F9012038BD012000F070BC1B
:100D4000F8B5AFF30080054600200C46102000BF28
:100D50000646A819A0420DD9324669460020AFF3D5
:100D60000080070008BF00F05BFC0098A04218BF9D
:100D70000546C419FFF7C4FF05600746F01D20F0C3
:100D800007004619284600F0C5F9B44208BFF8BD6F
:100D9000A21B31463868BDE8F84000F0C2B970B512
:100DA0000646FFF7ADFF056806F10B0020F00704CB
:100DB000B4429CBF002070BD2B466A68BAB110686F
:100DC000A04210D304F1080188423CBF506858602B
:100DD00007D35168101941601168091B0160586000
:100DE0001460101D70BD13465268002AE7D12146D9
:100DF0002846FFF791FF0028DED170BD2DE9F047AE
:100E0000814616468AB0354878440DC88DE80D00F5
:100E100032487844801C03AC0DC884E80D0041F6CC
:100E20009B300844372190FBF1F290FBF1F5A5F1DE
:100E3000800501FB12041B3C02D56442012000E046
:100E40000020DFF898A080460027FA44AAF1BE0AE5
:100E50000EE0E0070AD03246684607EB470101235F
:100E60000AEB810100F0AAFE8DE8070064107F1CE8
:100E7000002CEED1194F7F44AE3F19E0E80715D0A2
:100E800007EB04100DF1180A90E80E008AE80E0036
:100E9000C068F04201D1981908903246012306A992
:100EA00003A800F08BFE03AB83E807006D10641C01
:100EB000002DE3D14FF0010332466946B8F1000F2F
:100EC00003A802D000F050FE01E000F077FEC9E96F
:100ED0000001C9F808200AB0BDE8F087804F000083
:100EE0002DE9F041044616460D464769007B800710
:100EF0002ED0384603F0BCF850BB3EB3012E02D0D2
:100F0000022E25D104E0204600F050FB05441DE0F0
:100F1000384603F0A7F8E168002841F01001E160CD
:100F200005DA204600F058F80120BDE8F081C90339
:100F30000BD56268E16A914200D81146A26911445A
:100F40002269891A814200DD08460544002D01DA34
:100F50000220EAE7E16A6068E268814206D2910312
:100F6000E06203D522F4003141F01002A6690027A7
:100F7000AE4213DCE16A814201D90B4600E0034630
:100F800003EB060C2369ACEB030CAC4506DD814298
:100F900001D98C4600E084469C4505D1A7602760B6
:100FA00042F02000A5620DE0AD1BE669AE1B814258
:100FB000A66000D90846C01A281A20605819606037
:100FC00022F0200003490840E060002084F84870C7
:100FD000ABE70000BFCFD7FFC16821F4001141F09B
:100FE0008001C16000218160016070472DE9F047F8
:100FF000814614460E464FF0FF383248D56857698F
:10100000054209D03846A16903F06CF8002811DBCD
:101010002C48C0430540E5602B46324649463846D9
:1010200003F063F8A16920F00042B21A11440028CD
:10103000A16103D02046FFF7CFFF4046BDE8F0870F
:1010400070B504460569C06A6168884200D80846E0
:10105000E16821F42011E160C90312D5A84208D04B
:101060002246411B2846FFF7C1FF10B14FF0FF3069
:1010700070BD0020E562C4E90150E06820F48030D2
:10108000E060002070BD10B50446C06820F020006C
:10109000E060A16AA06988420DD02046FFF7D0FF2A
:1010A000E06820F4405040F01000E060A06AA061C9
:1010B0002069E062606044F24001E0688843E060DB
:1010C00010BD000010000200002801D000F01CB884
:1010D0007047000010B5014602A000F088FA012018
:1010E00010BD000053494752545245443A205265BE
:1010F0006469726563743A2063616E2774206F704F
:10110000656E3A200000000001491820ABBEFEE7E2
:101110002600020000210160C0E901107047102084
:101120007047034640688C46002818BF88423CBF81
:1011300003464068F8D318681844884207D00CF179
:10114000030020F00700001D411A521A0146081D35
:101150000A60FFF74DBA00002DE9FF4F1F464FF020
:101160003C0987B04FF00042DDE9141001F101089D
:10117000DDF858A002EA4050039000200590834615
:10118000054604460490B969461E08988847AAF1A6
:10119000010A0290BAF1000F3BDD02982E2815D00B
:1011A000102100F05FFA00282EDB4FF0010B0599AB
:1011B000014317D0B9F1000F0BDB4A46C11700F00D
:1011C0003EFA05430C43A9F1040905E0012004900F
:1011D0000BE008B145F0010501200590049820B905
:1011E000361D02E0049800B1361FB969089808F16D
:1011F00001088847BBF1000FAAF1010A0290C9D08B
:101200000999C1F80080C5E70298702808D05028D5
:1012100006D0F96908988847BBF1000F14D04FE059
:10122000002002900120BBF1000F049009D0B969A1
:10123000089808F101088847AAF10109B9F1000FDF
:1012400007DCF969089888476FF001000BB0BDE82A
:10125000F08F2B2804D02D280CD14FF0FF300490B4
:10126000B969089808F101088847A9F10109B9F19D
:10127000000FE6DD411CE4D00A2100F0F3F900285C
:10128000DFDB029908F1010801EB810100EB41006D
:101290000290B969089888470A2100F0E3F9099A91
:1012A000A9F10109B9F1000FC2F8008001DD0028A1
:1012B000E7DAF969089888470499029800FB016603
:1012C00055EA040004D004F04041090002D006E0D1
:1012D000039898E0A40044EA9574AD00B61E04F0AB
:1012E0000041080002D16D196441761E159810F076
:1012F000240F03D04FF00B095C4803E04FF028099E
:101300006FF07D008246564507DAAAEB0601894454
:10131000B9F1410F01DD4FF0410901200021A9F190
:10132000010200F08CF9024628400B462140084398
:1013300001D0012100E00021501E029143F1FF3154
:1013400028402140084301D0012000E000200299FC
:10135000834651EA0B014FD0002108464FF00000B0
:10136000039900F4400039B100EB80004FF44001D4
:1013700000EBD07001EA60008015012802DD4FF01B
:10138000FF3000E013D0401C36D0029860B3BBF1B0
:10139000000F0CD14A460120002100F050F92840EE
:1013A0002140084301D0012000E00020E0B10120ED
:1013B0004A46002100F043F9034640190A466141BC
:1013C0002D1A8C4111D3B9F1400F09DD159810F099
:1013D000240F02D0AAF1340603E0AAF1170600E0B8
:1013E000761C00254FF0004406E05B1E42F1FF3200
:1013F00020EA030521EA0204CAF10100B04206DA3C
:101400001B49039808430190002000900EE0039AC6
:10141000C4F3D321E80A0A43164940EA44500A4378
:101420003146CDE90002684602F0FEFD159810F045
:10143000240F0BD01598C00715D13868DDE90012CC
:10144000031D3B600068C0E900120CE002A8694679
:1014500002F084FD1598C00705D13868029A011D75
:101460003960006802604046F0E6000002FCFFFFC1
:101470000000F07F0000F03F2DE9FF4F92461D462F
:1014800085B04FF00041DDE9124BDDE914727F1E9B
:1014900001EA4B50414940F0FF4940EA0108002170
:1014A00022F020004928049102D04E2828D04CE098
:1014B0003BA0012607C88DE80700A9690698641CAF
:1014C00088477F1E014606D41DF8060018B121F09A
:1014D000200181420BD0E96906988847032E34D059
:1014E000082E32D06FF0010009B0BDE8F08F761CF5
:1014F000032E01D0082EE0D1601CCAF80000DCE702
:10150000A9690698641C88477F1E2AD420F0200011
:10151000412826D1A9690698641C88477F1E20D4DB
:1015200020F020004E281CD1A9690698641C884729
:101530007F1E48F4002849F48009CAF8004001D40D
:10154000282806D0E969069888475FEACB7012D050
:1015500022E0A9690698641C88477F1E01D40028F0
:1015600003DAE96906988847BCE72928F1D1641CA9
:10157000CAF80040E9E71BF0240F07D02868049957
:10158000031D2B600068C0E9001805E02868021DF3
:101590002A600068C0F800902046A5E70000F07FB0
:1015A000494E46494E4954590000000010B50146C5
:1015B000C268900703D0900607D5886A0AE0FEF754
:1015C000FFFE01210160881E10BD8B694868184428
:1015D0000B69C01A91F848301BB191F84910401AB4
:1015E00010BD1103FCD50028FADD401E10BD70B5FA
:1015F00005460C460A2000E06D1C00F018F835B1D5
:1016000028780028F8D102E0641C00F010F814B12A
:1016100020780028F8D1BDE870400A2000F007B813
:1016200010B500F02DF8BDE81040FFF74DBD08B52E
:1016300069468DF800000320ABBE08BD7047B2F1CB
:1016400020030AD5C2F1200301FA02F120FA03F3C4
:1016500000FA02F041EA0301704700FA03F14FF08B
:10166000000070473A2800D2303820F02002412A8A
:1016700001D3A2F13700884201D34FF0FF30704709
:1016800010B5012805D0002103A0FFF7B0FF01200D
:1016900010BD09A1F8E7000053494752544D454D8C
:1016A0003A204F7574206F662068656170206D6503
:1016B0006D6F7279000000003A2048656170206DFE
:1016C000656D6F727920636F7272757074656400F6
:1016D00020F07F4C80EA030023F07F47ACEB070348
:1016E00003F57C5300F0004003F1FF032DE980492E
:1016F0004FEA154B09B44FEA144325EA0B4E24EA8E
:1017000003480FF2042606EB132749083E785FEAE8
:10171000320203FB0667C7F5000707FB06F64FEA30
:1017200054374FEAD64606F1020607FB066CCCF1A9
:10173000005C4FEA1C472CEA074C07FB06F40CFB45
:1017400006F504EB15464FEA961634BF00204FF01D
:1017500000404FEAD13706FB07FC4FEA1C4C0CFB5C
:101760000BF7D21B03FB0CF761EB07010CFB0EF729
:10177000B0EB074072EB17420CFB08F734BFA2EB4B
:101780000742B2EB074261EB17414FEA0C444FEAC4
:10179000910706FB07FC4FEA1C4C0CFB0BF7B0EB68
:1017A000C74072EB573203FB0CF734BFA2EBC742C2
:1017B000B2EBC74261EB57310CFB0EF7B0EBC70041
:1017C00072EB57720CFB08F734BFA2EBC702B2EB07
:1017D000C70261EB5771039F4FEA816141EA9211A1
:1017E00004EBCC044FEAD1374FEA826206FB07FCD8
:1017F00042EA90124FEA80604FEA1C4C0CFB0BF758
:10180000D21B03FB0CF761EB07010CFB0EF7B0EBEF
:10181000074072EB17420CFB08F734BFA2EB0742FC
:10182000B2EB074261EB17414FEA8C554FEA910743
:1018300004EB9C2406FB07FC4FEA1C4C0CFB0BF74B
:10184000B0EBC74072EB573203FB0CF734BFA2EB8F
:10185000C742B2EBC74261EB57310CFB0EF7B0EB5E
:10186000C70072EB57720CFB08F734BFA2EBC7023C
:10187000B2EBC70261EB577115EB4C254FEA816162
:1018800041EA92114FEA82624FEAD13742EA90125E
:1018900006FB07FC44F100044FEA80604FEA1C4C51
:1018A0000CFB0BF7D21B03FB0CF761EB07010CFBE6
:1018B0000EF7B0EB074072EB17420CFB08F734BF92
:1018C000A2EB0742B2EB074261EB174115EB1C1587
:1018D0004FEA813141EA92414FEA823242EA904234
:1018E0004FEA80304FEA0C7644F1000448EA0343A3
:1018F0004EEA0B484FF0000EB2EB080C71EB0307F9
:1019000024BF624639464EEB0E0E4FF0000B001816
:10191000524149414BEB0B0BB2EB080C71EB030747
:101920007BF1000B24BF624639464EEB0E0E4FF0A2
:10193000000B0018524149414BEB0B0BB2EB080C6A
:1019400071EB03077BF1000B24BF624639464EEB77
:101950000E0E51EA020718BF46F0010616EB0E768E
:1019600055F1000254F1000103D5BDE88901BDE83D
:101970000088BDE88901BDE80048B619524141EB35
:101980000101A3F10103704780807F7E7D7C7B7A1B
:101990007978777676757473727171706F6E6E6D1B
:1019A0006C6C6B6A6A6968686766666564646363C1
:1019B00062616160605F5F5E5E5D5D5C5C5B5B5A47
:1019C0005A595958585757565655555554545353B4
:1019D00052525251515050504F4F4F4E4E4D4D4D0F
:1019E0004C4C4C4B4B4B4A4A4A494949484848475A
:1019F0004747474646464545454444444443434398
:101A0000434242424241414146EA0646A3F57053F1
:101A10004FEA164646EA42564FEAD22242EA41527D
:101A200010B54FEAD121A3F1010300F02FF820F007
:101A3000004000F1020C00F0004701EB005011469D
:101A4000BCF5006F40EA070000D210BDBAF1000FEC
:101A50000AD01CB503B44FF004004FF004014FF05E
:101A600000000FBCBDE810404FF00001BBF1010FBA
:101A7000B9BF04484FF0FF310348002140EA070096
:101A800010BD00BFFFFFEF7F0000F07F002B9C46E2
:101A900030D477002BD01CB54FEA370703B44FF092
:101AA00010004FF01001BAF1000F06D0BCF1000F8A
:101AB000DCBF40F0080040F008014FF000000FBC10
:101AC000BDE810400BF1010BBBF1010F08BF5FEA4D
:101AD000170722BF12F1010211F101014FF000417D
:101AE00043F1000300F0004043EA00007047F9D3DF
:101AF0005708D0E746EA064613F1400F4FEA16466C
:101B00001FDD13F1200FDFBF16430A4600212033EB
:101B10005B42BED0C3F1200746EA064602FA07F749
:101B20004FEA164646EA0706C3F1200722FA03F2F7
:101B300001FA07F721FA03F14FF0000342EA070226
:101B4000A7E746EA020646EA06464FEA164646EA8E
:101B50000106BCBF46EA0646360C4FF000034FF0C4
:101B600000024FF0000194E72DE9804C9A4693461D
:101B700070B491E8380007C831EA400C48BF34EA35
:101B8000430C03D5FFF7A4FDFFF780FFF0BCBDE8D1
:101B9000008C2DE9804C9A46934670B491E8380049
:101BA00007C831EA400C48BF34EA430C03D5FFF7BD
:101BB0008FFDFFF729FFF0BCBDE8008C2DE9804CBC
:101BC0009A46934670B491E8380007C810F0804FE9
:101BD00008BF13F0804F03D100F01AF8FFF756FF4B
:101BE000F0BCBDE8008C2DE9804C9A46934670B459
:101BF00091E8380007C810F0804F08BF13F0804FFD
:101C000003D100F005F8FFF7FFFEF0BCBDE8008C43
:101C100020F07F4780EA030023F07F4C07EB0C03A2
:101C2000A3F57C5300F00040A3F1FE0392F0000FF7
:101C300000F0B38095F0000F00F077802DE90149A6
:101C40004FEA11404FEA144621EA004800FB06FC27
:101C500024EA064708FB06F607FB08F800FB07F72F
:101C600018EB06484CEB164C4FEA124B18EB0748A2
:101C70004FEA15464CEB174022EA0B4E0BFB06FCD5
:101C800025EA06470EFB06F607FB0EFE0BFB07F7E1
:101C90001EEB064E4CEB164C4FF000061EEB074EAB
:101CA0004CEB174B18EB0B0840F1000018EB0E0B38
:101CB00058EB000840F100008F1A4FF000013CBFC4
:101CC000C943661B14BFB5EB040C00213CBFC943DC
:101CD000F61B4FEA17444EEA8E0E27EA04454FEAF8
:101CE0001C4704FB07622CEA074C05FB07F70CFBBB
:101CF00005F604FB0CFC16EB074642EB174216EB0D
:101D00000C4642EB1C421BEB060658EB020241411B
:101D100046EA9E0601D5BDE80189B619524141EB5C
:101D20000101A3F10103BDE801894FEA14454FEA1F
:101D3000114724EA054621EA074C05FB07F406FB98
:101D400007F70CFB06F105FB0CFC11EB074144EB1C
:101D500017444FEA124711EB0C4144EB1C4422EAB2
:101D6000074C05FB07F206FB07F70CFB06F605FB25
:101D70000CFC16EB074642EB174216EB0C4642EB07
:101D80001C456A1854F1000148BF7047B61952410A
:101D900041EB0101A3F10103704795F0000F37D02B
:101DA0004FEA11424FEA144721EA024624EA074C5F
:101DB00002FB07F106FB07F70CFB06F402FB0CFC29
:101DC00014EB074441EB17414FEA154714EB0C4461
:101DD00041EB1C4125EA074C02FB07F506FB07F720
:101DE0000CFB06F602FB0CFC16EB074645EB174511
:101DF00016EB0C4645EB1C42121951F1000148BF8D
:101E00007047B619524141EB0101A3F1010370473C
:101E10004FEA14454FEA114724EA054621EA074CE8
:101E200005FB07F106FB07F70CFB06F24FF0000677
:101E300005FB0CFC12EB074241EB174112EB0C4285
:101E400051EB1C4148BF7047921841EB0101A3F1CF
:101E50000103704710B504468168054801F060FA37
:101E6000A08A002281B22069BDE8104000F002BBC8
:101E7000002C014070B50A46084D0446816828468A
:101E800001F0AAFA2846A16801F078FAA08A002297
:101E900081B22069BDE8704000F0ECBA002C01402E
:101EA00070B504460A480068094D401A82B22C3DBC
:101EB0002846A16801F090FA2846A16801F05EFA70
:101EC000A08A012281B22069BDE8704000F0D2BA38
:101ED0002C2C014010B50446C168054801F020FAD9
:101EE000208B002281B22069BDE8104000F0C2BA08
:101EF000002C014070B50A46084D0446C1682846CA
:101F000001F06AFA2846E16801F038FA208B0022D5
:101F100081B22069BDE8704000F0ACBA002C0140ED
:101F200070B504460A480068094D401A82B22C3D3B
:101F30002846E16801F050FA2846E16801F01EFAEF
:101F4000208B012281B22069BDE8704000F092BA76
:101F50002C2C0140FEE7000008490A78402A01D3F2
:101F600000220A70064A0B78D0540A78521C0A7074
:101F70000A2801D1012048707047000004000020A9
:101F8000040400200020044A01461154401C40284B
:101F9000FBDB0248017070470404002004000020AD
:101FA0002DE9F04FDFF89C9291B099F801000128DB
:101FB0007DD102F00FF9A44C227804F1400000F129
:101FC0000A011430089106904D2A15D1084602F0F6
:101FD0009DF802F003FD0546069802F097F802F01E
:101FE000FDFC0146284602F09FFB0A23052297A12B
:101FF000A4F1480000F0F6FF2078502807D1089897
:1020000002F084F802F06CFF28B102F0E1F92078C8
:10201000532803D013E002F0F9F9F8E7089802F02A
:1020200075F802F0DBFC03F01BFA02460B46894808
:10203000894902F0C1FD02F0D1FC8849086022788C
:10204000A0468149403101F11E0A01F1280B522AB4
:102050003ED1089802F05AF802F0C0FC04460698F7
:1020600002F054F802F0BAFC0546504602F04EF871
:1020700002F0B4FC0746584602F048F802F0AEFC05
:1020800006462946204602F04FFB02F0A1F93946E8
:10209000204603F011FA0746294602F045FB314677
:1020A000284603F009FA06463146384600E0C6E005
:1020B00002F03AFB3146204602F036FB2946204624
:1020C00002F032FB02F0A2F90021084602F02CFBDC
:1020D00098F8000043287CD1089802F017F802F025
:1020E0007DFC0646069802F011F802F077FC804667
:1020F000504602F00BF802F071FC0746584602F019
:1021000005F802F06BFC01460890554803F042FACE
:1021100009900020014602F00FF804460D463846AB
:1021200003F09EF982460191574622462B460391C1
:1021300002F06CFF04460D46304603F091F98346E9
:1021400022462B46049102F07BFC02F047FC044639
:102150000020014602F09EF902460B4638460399DC
:1021600002F054FF05460E46404603F079F98046DA
:1021700033462A46079102F063FC02F02FFC054625
:1021800000200A9002F042F92946204602F0CCFADB
:1021900002F01EF9002639E0DDE9091003F08CF9A0
:1021A00030490A9003F040FB03F05AF900222E4B0D
:1021B00002F002FD0D46044601F0BEFF02460B464A
:1021C0005046019902F022FF02460B4658460499F8
:1021D00000E028E002F034FC02F000FC0746204654
:1021E000294602F057F902460B465046019902F083
:1021F0000DFF02460B464046079902F021FC02F013
:10220000EDFB0146384602F08FFA761C304603F0AB
:10221000BFFA089903F0D4FABED302F0F7F8002110
:10222000084602F081FA08480A23052207A1483827
:1022300000F0D8FEFFF7A6FE002189F8011011B0CA
:10224000BDE8F08F0400002004040020444F4E45F8
:102250000A00000000801A06006AC8400000002042
:102260000000B443DB0F4940008066407047000027
:1022700070B5044600F004F90546601C02D004481D
:102280000078044400F0FCF8401BA042FAD370BD73
:10229000080000202DE9F84FDFF8B8910024A9F1DB
:1022A000040B23460F2709F1040AABF1040EC9E021
:1022B0000125A5402A40AA427DD1674ED1F804C02D
:1022C000ACEB0608B44532D014DCBCF1030F3AD0B5
:1022D00009DCBCF1000F2AD0BCF1010F1CD0BCF10D
:1022E000020F31D11DE0BCF1110F17D0BCF1120F5C
:1022F0002AD119E0B8F5881F19D006DCB8F5803F5F
:1023000015D0B8F5801F1FD111E0B8F5001F0ED011
:10231000B8F5041F18D10AE0CB6815E0CB681B1D87
:1023200012E0CB6808330FE0CB680C330CE08B680D
:102330002BB1012B4FF0080303D0456104E00423C7
:1023400002E0056100E00023FF2A01D8064601E013
:1023500000F104064FEA840501D9A5F12005D6F85D
:10236000008007FA05FC28EA0C0803FA05F548EA9C
:102370000508C6F800804D68ED0062D5374DAE699E
:1023800046F00106AE61AD6924F0030605F00105D3
:102390000095334D06EB050CDCF80850A607360F08
:1023A00007FA06F825EA0805DFF8B880404503D1AA
:1023B0004FF0000817E044E0DFF8AC80404502D160
:1023C0004FF001080FE0DFF8A480404502D14FF044
:1023D000020808E0DFF89880404502D14FF003087A
:1023E00001E04FF0040808FA06F848EA0508CCF8BE
:1023F00008804D68D9F80060ED024D4601D51643BE
:1024000000E096432E604D68DAF80060AD02554654
:1024100001D5164300E096432E604D68DBF800605E
:10242000AD035D4601D5164300E096432E604D682E
:10243000DEF80060ED03754601D5164300E09643D3
:102440002E60641C0D682A46E5407FF431AFBDE87C
:10245000F88F000008040140000011100010024035
:102460000000014000080140000C01400010014044
:10247000001401400AB1016170470904FBE7000044
:102480000148806870470000080000200248816809
:10249000027811448160704708000020074810B599
:1024A000016841F010010160032000F075F80F2071
:1024B00000F006F800F024F8002010BD00200240D3
:1024C00070B50D4D04464FF47A712878B1FBF0F0E9
:1024D0000A490968B1FBF0F000F0DCFA48B9102CA9
:1024E00007D200222146501E00F036F800206C6012
:1024F00070BD012070BD0000080000201400002005
:102500000C4808B5816941F001018161816901F0E0
:1025100001010091C16941F08051C161C06900F0C1
:10252000805000900448416821F0E06141F08061F2
:10253000416008BD0010024000000140002809DB96
:1025400000F01F02012191404009800000F1E020CD
:10255000C0F8001170470000F0B40E4B1B680C4629
:10256000C3F30223C3F10705042D00D90425191D67
:10257000072901D2002300E0DB1E012606FA05F13F
:10258000491E214099409E40761E16403143F0BCC2
:1025900001F0ADB90CED00E0064900F00702086853
:1025A0004FF6FF03184040EA0220034A1043086038
:1025B000704700000CED00E00000FA052DE9F0473F
:1025C0000F46050061D0434E306800F00700B84266
:1025D00009D2306820F0070038433060306800F0DE
:1025E0000700B84251D128683B4C810712D54007FB
:1025F00003D5606840F4E06060602878000703D588
:10260000606840F4605060606068A96820F0F00085
:10261000084360602878C00728D06868012810D077
:102620002168022810D0890700292EDA616821F07C
:10263000030101436160FFF723FF804641F28839BF
:102640000DE021688903EFE78901EDE7FFF718FF47
:10265000A0EB0801494502D90320BDE8F087606876
:10266000696800F00C00B0EB810FEFD1306800F02A
:102670000700B8420BD9306820F0070038433060BB
:10268000306800F00700B84201D00120E5E7287863
:10269000400705D56068E96820F4E06008436060A1
:1026A0002878000706D56068296920F4605040EA60
:1026B000C100606000F038F86168084AC1F3031196
:1026C000515CC8400649086006480068FFF7F8FEFC
:1026D0000020C2E70020024000100240BE5B00085C
:1026E000140000200C0000200448054900684968D7
:1026F000044AC1F30221515CC84070471400002015
:1027000000100240CE5B0008044805490068496893
:10271000044AC1F3C221515CC84070471400002034
:1027200000100240CE5B00080E4A51680E4801F0CE
:102730000C03042B11D0082B0FD10C48C1F3834399
:10274000C903C05C0AD55168084AC1F34041921ED2
:10275000515C054A5043B0FBF1F0704704494843CF
:10276000704700000010024000127A00AE5B0008C3
:1027700000093D002DE9F84F040070D02078C04DCD
:10278000C00749D06868C0F38100012807D0686895
:10279000C0F38100022809D16868C00306D5286803
:1027A000800339D560680028E7D035E06068B0F56F
:1027B000803F0BD010B1B0F5A02F11D0286820F4C5
:1027C00080302860286820F4802002E0286840F4E7
:1027D00080302860606890B1FFF752FE06460AE03C
:1027E000286840F480202860F0E700BFFFF748FE2B
:1027F000801B642873D828688003F7D50CE0FFF7A6
:102800003FFE064605E000BFFFF73AFE801B642846
:10281000F0D828688003F7D420789A4E80074FF0CC
:1028200001094FF0000839D5686810F00C0F07D087
:102830006868C0F38100022809D16868C00306D423
:102840002868800714D52069012808D110E0206984
:10285000B0B1C6F80090FFF713FE074605E00AE1A5
:10286000FFF70EFEC01B0228C4D828688007F7D5E2
:102870002868616920F0F80040EAC10028600DE096
:10288000C6F80080FFF7FCFD074604E0FFF7F8FDFF
:10289000C01B022823D828688007F7D420780007B7
:1028A0002CD57948A169D9B1C0F80090FFF7E8FDAF
:1028B000074604E0FFF7E4FDC01B02280FD8686A52
:1028C0008007F7D571484FF4FA510068B0FBF1F07A
:1028D000009000BF0098411E0091FAD20EE080E007
:1028E000C0F80080FFF7CCFD074604E0FFF7C8FD05
:1028F000C01B022875D8686A8007F7D42078400783
:1029000060D5E8690027C00008D4E86940F080502D
:10291000E861E869012700F0805000905C48016898
:10292000C90513D40168834641F480710160FFF743
:10293000A7FD824606E000BFFFF7A2FDA0EB0A005C
:1029400064284ED8DBF80000C005F5D5E068012802
:102950000AD008B1052813D0286A20F001002862A7
:10296000286A20F0040002E0286A40F00100286292
:10297000E06841F2883B98B1FFF782FD82460BE0A8
:10298000286A40F004002862EEE700BFFFF778FDF8
:10299000A0EB0A0159455AD8286A8007F6D50CE001
:1029A000FFF76EFD824605E0FFF76AFDA0EB0A0126
:1029B00059454CD8286A8007F6D41FB1E86920F041
:1029C0008050E861E06988B36968C1F38101022938
:1029D00044D00228C6F8608004D0FFF751FD0446B9
:1029E00038E034E0FFF74CFD074604E0FFF748FD10
:1029F000C01B02282BD828688001F7D4206AB0F5C4
:102A0000803F05D16868A16820F400300843686001
:102A1000D4E908010843696821F474110843686027
:102A2000C6F86090FFF72CFD044606E025E000BFE5
:102A3000FFF726FD001B022809D828688001F7D57A
:102A40001BE000BFFFF71CFD001B022802D903207A
:102A5000BDE8F88F28688001F4D40EE00128F7D093
:102A60006868226A00F48031914204D1616A00F4FE
:102A70007010884201D00120EAE70020E8E700005A
:102A80000010024000004242800442421400002034
:102A90000070004010B5401EB0F1807F01D30120CE
:102AA00010BD4FF0E02460610F21601700F01FFFA0
:102AB0000020A06107202061002010BD10B590F813
:102AC0003C20012A22D0012280F83C20CA688C6870
:102AD00022F4407222434C6822F4806222430C6844
:102AE00022F4006222430C6922F4805222434C6992
:102AF00022F400522243C969002322F480420A438F
:102B000001684A6480F83C30002010BD022010BDEE
:102B100070B590F83C20012A26D0012480F83C4072
:102B2000022280F83D2003685A689D6822F07006F2
:102B30000A6832435A600D4B02689A4208D0B2F1DB
:102B4000804F05D00A4B9A4202D00A4B9A4204D1D8
:102B5000496825F080031943916080F83D400021C9
:102B600080F83C10084670BD022070BD002C01406A
:102B7000000400400008004010B5040003D094F8A1
:102B80003D0010B107E0012010BD002084F83C009A
:102B9000204600F01FF8022084F83D00211D206827
:102BA00000F0A8FC012084F8460084F83E0084F878
:102BB0003F0084F8400084F8410084F8420084F823
:102BC000430084F8440084F8450084F83D00002068
:102BD00010BD000008B501681D48B1F1804F11D04B
:102BE0001C4A91421DD1C16941F00201C161C06915
:102BF000002200F00200009011461D20FFF7ACFCFF
:102C00001D201FE0C16941F00101C161C0690022BE
:102C100000F00100009011461C20FFF79DFC1C20D5
:102C200010E00D4A914211D1C16941F00401C16126
:102C3000C069002200F00400009011461E20FFF73A
:102C40008BFC1E20BDE80840FFF778BC08BD0000E3
:102C500000100240000400400008004070B5044627
:102C600090F83C000025012817D0012684F83C602C
:102C7000022084F83D002068826822F0770222F466
:102C80007F4282600868502838D00DDC20284FD061
:102C900005DC90B3102811D14AE0022070BD302825
:102CA00046D040280AD13BE060282FD070280DD0B4
:102CB000B0F5805F03D0B0F5005F12D0012584F835
:102CC0003D60002084F83C00284670BDCB68D1E907
:102CD0000121206800F044FC2068816841F0770100
:102CE00009E0CB68D1E90121206800F039FC2068B7
:102CF000816841F480418160E1E719E0CA68496870
:102D0000206800F0E1FC5021206806E0CA684968AC
:102D1000206800F0EAFC6021206800F02BFCCEE780
:102D2000CA684968206800F0CFFC40212068F4E7B9
:102D3000226801461046F0E710B586B000210091E8
:102D4000019102910391134C036813490222134825
:102D5000A3420AD18B6943F004038B61896901F0B6
:102D6000040104914FF470610BE0B3F1804F0ED178
:102D70008B6943F004038B61896901F004010491BC
:102D80000121CDE9001269460392FFF783FA06B0EC
:102D900010BD0000002C014000100240000801405E
:102DA00070B5044690F83C0000260D4601280FD06F
:102DB000012084F83C006AB1042A1DD0082A2FD0D3
:102DC0000C2A3FD00126002084F83C00304670BD1C
:102DD000022070BD206800F0D5FB2068816941F0B9
:102DE000080181612068816921F004018161206806
:102DF00081692A69114311E0206800F0EBFB20682B
:102E0000816941F4006181612068816921F48061F8
:102E10008161206881692A6941EA02218161D2E7E2
:102E2000206800F003FC2068C16941F00801C1611D
:102E30002068C16921F00401C1612068C1692A6963
:102E4000114311E0206800F01DFC2068C16941F4C5
:102E50000061C1612068C16921F48061C16120689D
:102E6000C1692A6941EA0221C161ACE710B50400D9
:102E700003D094F83D0010B107E0012010BD002000
:102E800084F83C00204600F01FF8022084F83D0042
:102E9000211D206800F02EFB012084F8460084F8F4
:102EA0003E0084F83F0084F8400084F8410084F834
:102EB000420084F8430084F8440084F8450084F814
:102EC0003D00002010BD000008B50068064988429A
:102ED00008D10648816941F400618161806900F48C
:102EE0000060009008BD0000002C0140001002406E
:102EF00070B5040004D094F84100002510B106E03C
:102F0000012070BD84F84050204600F023F82420B2
:102F100084F841002068C16821F40051C160204656
:102F200000F00EFC2068016921F4904101612068E5
:102F3000416921F02A0141612068C16841F40051D2
:102F4000C1606564202084F8410084F84200656314
:102F5000002070BD30B585B0002400940194029427
:102F6000039400681B49884232D11B48816941F4AF
:102F700080418161816901F480410491816941F05E
:102F8000080181618069154D00F00800049040201F
:102F90000090022001900320039069462846FFF725
:102FA00079F98020CDE90004694628460294FFF7AC
:102FB00071F90B48416841F0E06141F00401416062
:102FC000002211462520FFF7C7FA2520FFF7B6FAA1
:102FD00005B030BD0038014000100240000C014037
:102FE000000001402DE9F843044690F841001F46D7
:102FF00016460D46202802D00220BDE8F8837DB198
:1030000076B100206064212084F84100FFF738FA8F
:10301000A6848046E684A068B0F5805F02D003E015
:103020000120EAE7206910B12E4600250EE00026B7
:103030000CE08021204600F0DFFBA0B9AEB116F80D
:10304000010B21684860E08C401EE084E08C434620
:103050004FF0000200970028EBD14FF040012046CE
:1030600000F0CAFB30B10320C7E735F8020BC0F30C
:103070000800E6E7202084F841000020BDE7FEE7D5
:1030800030B585B000200090019002900390164862
:10309000816941F020018161816901F02001049181
:1030A000816941F004018161816901F004010491A9
:1030B000816941F00801816180690C4D00F00800D0
:1030C0004FF470440490002221462846FFF7D2F9BD
:1030D000012002210094CDE90101039169462846AF
:1030E000FFF7D8F805B030BD00100240000C0140D9
:1030F00010B592B000240F941C2168461094FDF77F
:1031000085F8202107A8FDF781F82C482A4901609D
:103110004721C0E901146421C0E9031444618461BA
:10312000FFF7A4FE08B172B6FEE70F940FA923487B
:103130001094FFF7EDFC08B172B6FEE76020CDE910
:1031400000040294039404940594002269461B48E9
:103150000694FFF725FE08B172B6FEE70422694621
:103160001648FFF71DFE08B172B6FEE70822694651
:103170001248FFF715FE08B172B6FEE70C22694649
:103180000E48FFF70DFE08B172B6FEE707940894EB
:1031900009944FF400500A94CDE90B4007A9074861
:1031A0000E94FFF78BFC08B172B6FEE70348FFF7F9
:1031B000C3FD12B010BD0000002C01409C02002095
:1031C00010B58EB000240794089409940A940B94C7
:1031D0001C2168460C94FDF719F81D484FF08041FA
:1031E000C0E900144FF6FF71C0E902410461846137
:1031F000FFF7C2FC08B172B6FEE74FF480500790AB
:1032000007A91348FFF72AFD08B172B6FEE7104878
:10321000FFF72CFE08B172B6FEE70B940BA90C4821
:103220000C94FFF775FC08B172B6FEE76020CDE99B
:10323000000402940022694605480494FFF7B0FD9B
:1032400008B172B6FEE70248FFF776FD0EB010BD7A
:10325000E402002010B586B00024164800940194C2
:1032600002940394049412490594C0E900144FF6A3
:10327000FF71C0E9024104618461FFF77DFC08B180
:1032800072B6FEE74FF48050009069460948FFF798
:10329000E5FC08B172B6FEE7049404A9054805945C
:1032A000FFF736FC002801D072B6FEE706B010BD6D
:1032B000000400402C03002010B586B000241648FE
:1032C0000094019402940394049412490594C0E973
:1032D00000144FF6FF71C0E9024104618461FFF7F9
:1032E0004BFC08B172B6FEE74FF48050009069467F
:1032F0000948FFF7B3FC08B172B6FEE7049404A9CD
:1033000005480594FFF704FC002801D072B6FEE7DB
:1033100006B010BD0008004074030020FEE7FEE781
:10332000F9B1042921D0082924D00C2915D03C2931
:103330001FD1016821F001010160416C21F40041BD
:103340004164016A21F001010162016A21F010016A
:103350000162016A21F480710162016A21F48051E5
:1033600006E0016A21F0010102E0016A21F010018A
:1033700001627047016A21F48071F9E7026842F046
:1033800001020260426C42F400424264B9B1042975
:1033900019D008291CD00C290DD03C2917D1016A5D
:1033A00041F001010162016A41F010010162016A0C
:1033B00041F480710162016A41F4805106E0016AC2
:1033C00041F0010102E0016A41F010010162704721
:1033D000016A41F48071F9E739B1042907D008295D
:1033E00007D00C2900D102647047426370478263A2
:1033F0007047C26370470000074A1368074AB3FB6F
:10340000F2F2521E8262826A521C4A43B3FBF2F10C
:10341000491EC162704700001400002040420F00A6
:1034200010B50021074C0A4601EB8103002004EB94
:1034300043031A54401C0A28FBDB491C0A29F3DB0E
:1034400010BD00004404002070477047FFF71EB80D
:1034500030B58FB028216846FCF7D8FE14210AA8A1
:10346000FCF7D4FE01210804CDE9001000240294E9
:1034700002250491CDE907504FF4E0100990684609
:10348000FFF778F908B172B6FEE70F20CDE90A051B
:103490004FF48060CDE90C4002210AA80E94FFF79A
:1034A0008DF8002801D072B6FEE70FB030BD70472E
:1034B0007047000010B5054C2068C00705D00448CF
:1034C00001F020FA6FF00100206010BD10040040F0
:1034D0002400002010B5054C2068C00705D0044822
:1034E00001F010FA6FF00100206010BD10080040DC
:1034F00058000020F0B50268164B174C174D4FF0DE
:103500008047984205D0B84203D0A04201D0A842DB
:1035100003D122F070064A683243984205D0B8427F
:1035200003D0A04201D0A84203D122F44074CA685B
:1035300022434C6922F08002224302608A68C26200
:103540000A688262984201D10969016301214161DF
:10355000F0BD0000002C01400004004000080040C5
:1035600010B5846842EA032224F47F440A432243CC
:10357000826010BD826822F070020A4342F00701A7
:103580008160704730B5036A026A22F0010202626C
:103590004268846924F073050C682C4323F002050B
:1035A0008B682B430A4DA8420BD123F00805CB684A
:1035B00022F440722B434D6923F0040315438A69BA
:1035C0002A434260846149684163036230BD000060
:1035D000002C014030B5026A036A23F01003036235
:1035E000436884690D6824F4E64444EA05248D6840
:1035F00022F0200242EA05120B4DA8420ED1CD68FE
:1036000022F0800242EA05124D6923F4406343EA46
:1036100085038D6922F0400243EA8503436084619B
:1036200049688163026230BD002C014030B5036AF5
:10363000026A22F4807202624268C46923F4007351
:1036400024F073050C682C438D6843EA05230C4D68
:10365000A8420ED1CD6823F4006343EA05234D69E7
:1036600022F4405242EA05128D6923F4806342EA53
:1036700005124260C4614968C163036230BD000045
:10368000002C014030B5046A026A22F480520262C2
:103690004268C3690D6823F4E64343EA05238D6855
:1036A00024F4005444EA0534064DA84204D14D697F
:1036B00022F4804242EA85124260C3614968016493
:1036C000046230BD002C014010B5036A046A24F086
:1036D00001040462846924F0F00444EA021423F033
:1036E0000A020A438461026210BD10B5036A046ACB
:1036F00024F010040462846923F0A00324F47044CD
:1037000044EA023243EA01118261016210BD000005
:1037100005480168CA6842F40052CA600068C1687E
:1037200041F02001C1607047BC030020FEF714BCCB
:1037300030B50D46044600F09BF8656030BD0000D2
:1037400070B5044600680169E26821F440511143F4
:1037500001612169A0680843616908432168CA685A
:1037600041F20C639A430243CA6020684169A2692E
:1037700021F44071114341611E492068884202D101
:10378000FEF7C2FF01E0FEF7AFFF00EBC00101EB67
:103790000012606864218000B2FBF0F3B3FBF1F328
:1037A0006FF018067343B2FBF0F5B2FBF0F605EBD1
:1037B0008305322303EB0515B5FBF1F5B6FBF1F6F6
:1037C00005F0F00505EB0615B2FBF0F6B2FBF0F0E4
:1037D000B0FBF1F06FF01802504306EB800003EBF2
:1037E0000010B0FBF1F0216800F00F002844886061
:1037F00070BD0000003801402DE9F04198461746A1
:103800000E460446069D27E0681C25D02DB1FEF724
:1038100037FEA0EB0800A8421ED920680C3050E803
:10382000001F21F4D07140E80012002AF5D1206871
:10383000143050E8001F21F0010140E80012002A76
:10384000F5D1202084F8410084F84200002084F85B
:1038500040000320BDE8F0812068006836EA0000DF
:1038600004D00020B842CFD00020F3E70120F9E7D0
:103870000849002042F21072096804E0401C90429E
:1038800001DD002070470B68DB431B06F6D40120E6
:1038900070470000BC03002010B5084C2068006889
:1038A000C043800608D406480068C0B2FFF73EFF58
:1038B00021686FF02000086010BD0000BC030020EC
:1038C00004380140FEE7490050EAC12018BF042037
:1038D0004A0D18BF40F0010040F2FF72B2EB515F99
:1038E00008BF40F00200012808BF05207047090703
:1038F000090E002804DB00F1E02080F80014704776
:1039000000F00F0000F1E02080F8141D7047000067
:103910002DE9F74F144694B00021C4E9021115991E
:10392000079121F00045C9498D4206DC1599C4E98B
:10393000000117B00020BDE8F08FC549DFF814A3DF
:10394000A9423CDD0799C44E0029C44FC44A1599C9
:10395000534619DD01F09AFC554506D0C14AC24BC9
:1039600001F094FCC4E900010AE04FF0D352BE4BD1
:1039700001F08CFC32463B4601F088FCC4E90001B2
:1039800017B00120BDE8F08F01F05AF8554506D078
:10399000B44AB54B01F054F8C4E900010AE04FF015
:1039A000D352B14B01F04CF832463B4601F048F897
:1039B000C4E9000117B04FF0FF30BDE8F08FAB490C
:1039C000A942159978DB21F0004183468846A84A30
:1039D000A84B01F01BFB0022A74B01F031F801F0CE
:1039E0007FFA099001F0ABFA06460F469C4A53460F
:1039F00001F00CFB43465A4601F03CFC80468A46E7
:103A0000984A994B3046394601F000FB2A0D0125B2
:103A10000B924246534601F02DFC032DC4E90001F0
:103A200039D00B98C1F30A51401A05EB45111139F1
:103A3000814230DA9148C346784400EB0510CDF856
:103A40000CA00C90D0E900233046394601F0DEFA94
:103A500002460B46049106905846039901F016FC65
:103A600080468A4602460B465846039901F00EFCF2
:103A7000049B069A01F00AFC83460C980391394690
:103A8000D0E90223304601F0C1FA5A46039B01F007
:103A9000FDFB6D1CBDE707980028A2BF099817B071
:103AA000BDE8F08F616881F000416160099817B04E
:103AB0004042BDE8F08FFFE784461598C1F313013B
:103AC000C0F30A50A0F2F5304FEA601800F01F066C
:103AD000C6F12000139000200690079041F4801E4C
:103AE00005206D4676B1664A08EB00017A4452F82B
:103AF000213002EB8101B3404A68139922FA01F1A7
:103B0000194305E05F4908EB0002794451F822109F
:103B1000A1FB0E27A1FB0C131A449A4234BF0123C8
:103B2000002303EB070A05EB8003D3E901B70F4439
:103B30008F4234BF0121002193448B4411B193453E
:103B400002D903E0934501D2012100E00021C3E93D
:103B500001B7514445F82010011EA0F10100C1DC5D
:103B60000298059F00F10050800F12900298DDE945
:103B70000356800001F0E3F9834628460D9101F0D9
:103B8000F5F96FF01D0201F0C5FFCDE90E013046D9
:103B900001F0ECF96FF03D0201F0BCFF80468A466F
:103BA000384601F0E3F96FF05D0201F0B3FF07461C
:103BB00042465346119100F043FFDDE90E2300F029
:103BC0003FFF5A460D9B00F03BFF00250E465A462C
:103BD00028460D9B01F05AFBDDE90E2301F056FB50
:103BE0004246534601F052FB3A46119B01F042FB1C
:103BF000DFF898A0244A534601F008FA07468846A1
:103C0000234A244B3146284601F000FA3A464346FF
:103C100000F016FF074688464FF0A842534631464B
:103C2000284601F0F3F93A46434600F009FF159A99
:103C300012F0004F04D0129A81F0004152421292C9
:103C4000C4E90001129817B0BDE8F08FFB21E93FED
:103C50007CD90240FB21F93F7370032E8A19A33BE4
:103C6000000040543163621A61B4D03DFB213941F8
:103C700083C8C96D305FE43F0000E03FE4210000ED
:103C80006021000042210000182D4454FB21F93D21
:103C90003326A611460B113C2DE9FF4D21F00048BB
:103CA00007460C46B8F1795F08DA01F019F90028E7
:103CB00001BF0020324904B0BDE8F08D3A462346EA
:103CC0001046194601F0A2F9054602462D480E4657
:103CD0000B460621784400F05DF82A46334601F091
:103CE00095F9DDE9022382468B463846214601F0EC
:103CF0008DF904460F4652465B462846314601F090
:103D000085F922463B4601F0C1FA07468A464FF044
:103D1000FF322846314601F0FDFE1B4A90450ADA83
:103D20003A46534601F0B2FA04B00022BDE8F04D25
:103D3000134B01F09FBA154A4245A8BFA8F50015DC
:103D40004FF00004B8BF124D22462B4601F09EFAF8
:103D50000646884622462B460020094901F096FA7D
:103D600004460D463A4653463046414601F08EFA27
:103D700004B022462B46BDE8F04D01F07BBA0000AE
:103D80000000F03F181F00003333D33F0000E93F2D
:103D90000000D23F2DE9F0414F1E00EBC701044661
:103DA000D1E9000115461E4637F006020DD02A461D
:103DB000334601F02BF97F1E04EBC703D3E9002340
:103DC00000F03EFE37F00602F1D1022F25D0042F7D
:103DD00013D0062F18BFBDE8F0812A46334601F004
:103DE00015F9D4E90A2300F02BFE2A46334601F0E8
:103DF0000DF9D4E9082300F023FE2A46334601F0EA
:103E000005F9D4E9062300F01BFE2A46334601F0EB
:103E1000FDF8D4E9042300F013FE2A46334601F0EE
:103E2000F5F8D4E9022300F00BFE2A46334601F0F0
:103E3000EDF8D4E90023BDE8F04100F001BE000038
:103E40002DE9FF4D054621F0004084B00C46B0F14D
:103E5000795F0BDA2846FFF736FD042808BF00F02B
:103E600075F8284608B02146BDE8F08D2A460B4675
:103E7000104601F0CBF806460F462A46234601F0CD
:103E8000C5F8804626488A4632463B460521784496
:103E9000FFF780FF83461098029160B3214A224BBE
:103EA0004046514601F0B2F8CDE900015A4640467D
:103EB0005146029B01F0AAF882468846DDE90601D8
:103EC0004FF0FF3201F026FE5246434601F0DEF984
:103ED00032463B4601F09AF8DDE9062301F0D6F9B7
:103EE000DDE9002301F0D2F908B02A462346BDE8F7
:103EF000F04D01F0BFB90B465A463046394601F045
:103F000085F8084A084B00F09BFD4246534601F0F5
:103F10007DF808B02A462346BDE8F04D00F090BD7C
:103F2000561E0000495555555555C5BF012201F093
:103F3000F1BD002213461046114600F03DBE40F28E
:103F4000013200204FF0E04101F0E4BD024A0020C0
:103F5000110701F0DFBD000001FDFFFF10B50446B1
:103F6000D1E9000100F002F8206010BDF8B5044668
:103F70000D466A4600F05EF900987E3000900028F9
:103F80001EDC002213462046294600F06DFF17D0A4
:103F9000002140F608004FF0000006462046294662
:103FA00000F01CFD044640F6080006EA00014FF050
:103FB000000034F0004004BF0220FCF797F929E02C
:103FC0000098FF2828DB002108464FF0000000F48D
:103FD0004006002213462046294601F015F98CBF01
:103FE000002501250220FCF781F94FF0FF4446B17E
:103FF000002D0CBF4FF400004FF48000B04218BFFA
:10400000084C042108464FF00000002D04BF84F046
:104010000040F8BD2046F8BD20462946BDE8F840DE
:1040200000F0DCBCFFFF7F7F10B504460A46D4E9F0
:104030000003194600F02AF9C4E9000110BD303828
:104040000A2801D201207047002070476FF4004118
:10405000401804D0012803D0022801D0081470476A
:10406000002070476FF40041401800D000207047D6
:104070006FF40041401805D0012802D0022801D079
:10408000002070470120704770B504004FF0FF35E5
:1040900011D020783A280ED10CA12046FCF7DEF88A
:1040A00058B10CA12046FCF7D9F848B10BA1204625
:1040B000FCF7D4F838B1284670BD48F2010070BD55
:1040C00048F2020070BD48F2030070BD3A535444F8
:1040D000494E00003A5354444F5554003A53544407
:1040E000455252004FF0FF3070476FF400414118C5
:1040F0004FF0FF3009D0012902D0022905D103E099
:1041000012B100BE521EFBE70020704730B583B0ED
:104110000446FCF7E6F805460020CDE9000002461B
:1041200021466846FCF718F92846FCF7DFF8DDE978
:10413000000103B030BD000000B5244B21F0004267
:1041400087B09A42DCBF0022134629DD204B9A42F9
:1041500008D140B94FF00100FCF7C8F8FFF7E9FEBD
:1041600007B000BD03DBFFF7E1FE07B000BD02AA08
:10417000FFF7CEFB10F0030104BF0DF1080C9CE823
:104180000F000DD0012001290ED0022914D00DF10D
:10419000080C00909CE80F00FFF752FE07B000BD2E
:1041A000FFF77AFD07B000BD0DF1080C00909CE808
:1041B0000F00FFF745FE05E00DF1080C9CE80F002D
:1041C000FFF76AFD07B081F0004100BDFB21E93F28
:1041D0000000F07FF0B5FFF723F900230E4A1946DF
:1041E000184602F140050D4C12E0165C202E02D05C
:1041F000165C0A2E02D1491CC3B2C9B2165C01EB8F
:10420000810705EB4707A0EB030C401C07F80C6087
:104210002678B042E9DBF0BD040400200400002051
:1042200010B50446C1B20248FFF782FA204610BD1D
:104230000038014010B5144600222260114A21F0D6
:1042400000439342A8BF10BD53EA000208BF10BD4F
:10425000B3F5801FA8BF226807DA362201F05AFCA6
:104260006FF0350221F000432260DFF81CC06FF3CD
:104270001E510CEB23531A4441F0FF5141F0005101
:10428000226010BD0000F07F02FCFFFF2DE9F0412D
:1042900006460C4640F2FF75174635EA14502BD0FF
:1042A00000221346304600F0DFFD25D03A46304666
:1042B000214601F02FFC06460C4635EA145010D07A
:1042C00000221346304600F0CFFD15D10220FCF746
:1042D0000DF8FFF73BFE0A46214662F31E01BDE8DA
:1042E000F0810220FCF702F8FFF729FE0A4621467A
:1042F00062F31E01BDE8F08130462146BDE8F08141
:10430000FEF7CCF8FFF7A4F8FEF7BAFE16481549F9
:104310000C2201604FF46131416000218160C16075
:10432000C0E904128161C161FEF7E2FD08B172B615
:10433000FEE7FEF78FFFFEF743FFFEF7D9FEFEF71D
:10434000BBFF6420FDF794FFFFF7E2F907A0FBF73E
:1043500051FF00F017F800F007F900BFFDF720FE4D
:10436000FCE7000000380140BC030020434E43201E
:104370004D696E69205374617274696E672E2E0ADE
:10438000000000000E4810B500680E49B0FBF1F1C6
:104390004FF08040491E81620B4C0021C4E90201AC
:1043A00061600A4921603221FFF726F8D4E9020151
:1043B000FEF7E4FF20462168BDE8104000F044B855
:1043C0001400002040420F008C0200200000B0C109
:1043D00070B50C4C4FF041462068B04211D90A48E4
:1043E0004FF07E5520600146064800F02DF803206E
:1043F000FDF73EFF2946206801F05EF82060B042DC
:10440000F1D270BD8C0200200000B0C170B50C4C20
:104410000C4D2068A84212D24FF041404FF07E561A
:1044200020600146064800F00FF80320FDF720FF4A
:104430003146206801F0C4FA2060A842F1D970BD6D
:104440008C0200200000B0C110B50446084621606F
:10445000616801F031F80B4901F02EF801F000F825
:10446000094A0A4B00F0D2FD0022094B00F0E8FA9D
:1044700000F036FD82B2D4E90201BDE81040FEF73B
:10448000ABBF0000000034428EE3388EE338264094
:1044900000408F4000B5254B21F0004287B09A4282
:1044A00003DC0022134600922BE0214B9A4208D1F4
:1044B00040B94FF00100FBF719FFFFF73AFD07B0D5
:1044C00000BD03DBFFF732FD07B000BD02AAFFF716
:1044D0001FFA10F003014FF001000DD0012914D094
:1044E00002291AD00DF1080C9CE80F00FFF7D4FB4D
:1044F00007B081F0004100BD0DF1080C00909CE870
:104500000F00FFF79DFC07B000BD0DF1080C9CE803
:104510000F00FFF7C1FB07B000BD0DF1080C0090C4
:104520009CE80F00FFF78CFCE2E70000FB21E93F6D
:104530000000F07F416A491E416201D53F2141627E
:10454000816A491E8162416A00F078B9416A491C5A
:104550004162402901DB00214162816A491C81627C
:10456000416A00F06BB900002DE9FC5F63494FF030
:10457000000A5046C1F800A0614942F210725F4B38
:1045800009681B1DB1FBF2F2521E1A605B4A0C3225
:10459000C2F800A0121DC2F800A0121DC2F800A0AF
:1045A000121D10605748584DB1FBF0F202EB820427
:1045B0004FF0FF3202EB44042C60B1FBF0F05349A2
:1045C00000EB800002EB40000860514801900020A1
:1045D00004469846DFF83CB1CDF8000000F040FFFB
:1045E00089460646FFF756FF07460D46D8F80000F5
:1045F00000F0BCFC3A462B4600F008FD00F070FCD1
:10460000454D494645F824003046FFF795FD0646DE
:104610000F46D8F8000000F0A9FC32463B4600F0F7
:10462000F5FC00F05DFC4BF8240055F82420002A2E
:1046300002DA524245F82420002802DA40424BF8C0
:104640002400DDE9000100F037FF641C0090402CDD
:10465000C4DB314801216838304B01702A49274CAE
:104660002839C1614914C0E90431283C491044602B
:1046700081612B4D04210563C0E9021A00F1340168
:1046800002260E70214E0B61283E33144B615B00F5
:10469000C1E906360823C1E901430C230D635246E4
:1046A000CB608262C26280F820208A62CA6281F88E
:1046B0002020002100F0C2F817480021343800F013
:1046C000BDF80A20FDF7D4FD1348683800F050F912
:1046D0001148343800F04CF94FF4FA742046FDF7D5
:1046E000C7FD1048014600F01FF82046FDF7C0FD49
:1046F000BDE8FC5F0021084600F016B8282C0140F8
:104700001400002040420F00280400402808004008
:10471000DB0FC93D8C0100208C000020000C014003
:10472000CDCC4C3C000008422DE9F05FDFF8F8B03A
:104730000E465C46DBF8301000F02CFF00F0ECFF7A
:104740000BF1340581463046296B00F023FF00F061
:10475000E3FFA16A8046A9EB010001F019F8A96AFC
:104760000646A8EB010001F013F830490D68304906
:104770002C468E4201D386F00046DFF8B8A088426E
:1047800001D380F0004007460146304601F018F89A
:1047900019D2544616F0FF4F2ED0304600F060FE7E
:1047A00006460D46384600F05BFE02460B460020EA
:1047B000214900F02BFC32462B4600F0FDF900F0B9
:1047C0000DF9054618E0554617F0FF4F14D038464E
:1047D00000F046FE07460C46304600F041FE024619
:1047E0000B460020144900F011FC3A46234600F025
:1047F000E3F900F0F3F804462A4649460A4800F077
:1048000059F8094822464146343000F053F8064929
:104810005846343190F82020012AFBD091F820200E
:10482000012AF7D0BDE8F09F2400002000000020FE
:104830000000808000007A4400408F4070B50C4634
:104840001B490646A1F58075102C06DA31F82400C4
:1048500081B23046FDF70EFB07E0202C0DDA31F86F
:10486000240081B23046FDF71BFB35F8240081B2ED
:104870003046BDE87040FDF73DBB302C06DA31F81C
:10488000240081B23046FDF70BFB07E0402C0DDA27
:1048900031F8240081B23046FDF7ECFA35F82400F7
:1048A00081B23046BDE87040FDF73ABB70BD0000F4
:1048B0008C01002010B50446C06A88420DD0E16228
:1048C0001146204600F00AF8D4E90A01814204D0DA
:1048D0002046BDE8104000F02CB810BD10B50446CD
:1048E00006480A46814200DA02460549104600F0B1
:1048F00051FE00F02DFFE169C86210BD00007A444E
:104900000000204110B5044600F032F8D4E90A0155
:10491000884209D0204603DDBDE81040FFF70ABEFB
:10492000BDE81040FFF712BE2046BDE8104000F081
:1049300011B8C169CA6A4A62C169CA6842F0010213
:10494000CA60C1690A6842F001020A60012180F868
:1049500020107047C169CA6822F00102CA60C169AB
:104960000A6822F001020A60002180F820107047D6
:1049700010B50446FDF76EFA2046BDE81040FDF77D
:10498000A9BA000010B500290AD00878002807D07D
:1049900005487844FBF762FC002801D0002010BDD8
:1049A0000248784410BD0000421400003A14000090
:1049B00010B500290AD00878002807D005487844A7
:1049C000FBF74CFC002801D0002010BD02487844C1
:1049D00010BD0000321400002A14000021F0004233
:1049E000A2F16052B2F5801F01F0004328BFD2F15E
:1049F0007F6C0BD95FEA001C43EAC20242EB5070A5
:104A000018BF704728BF20F001007047B2F5801F23
:104A1000BCBF184670474FEA410C1CF5001F02D27C
:104A2000084600F0C8BF70B500F09AFB000000898E
:104A3000FFF7F6BF4FF00040A0F580007047000080
:104A400010B591EA030F48BF83F0004300F12684BC
:104A5000841A71EB030C05D2121943EB0C03001BF3
:104A600061EB0C01DFF824E14FEA1154A4EB135C75
:104A70001EEA430F18BF9EEA445F73D023EA0E0379
:104A8000DCF1200E21EA045143F4801332D322FAE0
:104A90000CFE10EB0E0023FA0CFE41EB0E01CCF1E4
:104AA000200E03FA0EFE10EB0E0051F10001B1F5DD
:104AB000801FCCF1200E32D201EB045112FA0EF21B
:104AC000BDE8104058BF7047401C38BF5FEA420243
:104AD00018BF7047002814BF20F0010041F1000109
:104AE0004FEA410313F5001F38BF7047A1F1C041E1
:104AF00000F084BB012A43EB0302ACF1200CDCF193
:104B00001F0E32BF4FF0000E23FA0CF310EB030020
:104B100041EB0451B4EB115FD0D0A1EB045101F58E
:104B2000801149085FEA300001EB04510ED350F1C7
:104B3000000038BF12FA0EFE08D1BDE81040C9E7E8
:104B4000401C38BF5FEA4202CAD1C3E7BDE810404B
:104B50004FEA410313F5001F38BF7047A1F1C04170
:104B600000F04CBB9EEA445F08D011EA5E0FBDE83E
:104B7000104004BF01F0004100207047BDE8104024
:104B800070B500F0EDFA00BF64FBBE3E0000E0FF30
:104B900002494FF0000000F08BBF00BF0000F87F1B
:104BA000491058BFC1F140415B1058BFC3F14043A9
:104BB0008B42EFF3008070472DE9C04130B4DFF83D
:104BC000A0C23CEA111418BF3CEA131400F0EC80B8
:104BD00081EA03051CEA111444EAD57418BF1CEAE3
:104BE000131500F0C780A4EB05044FF0004545EA1B
:104BF000C12145EAC32341EA505143EA525304F12B
:104C00007F74994204F500344FEAC0204FEAC22273
:104C100008BF904200F09C804FEA13650FF24016E7
:104C2000765D4FEA134506FB05F7C7F1807706FB73
:104C300007F74FEAD737A7FB03687642C8F58038F5
:104C4000A7FB06CE38BFA8F1010807FB08E64FF026
:104C5000000EA6FB028CE6FB03CEDCF1000CCEF1CD
:104C6000004E38BFAEF1010EA6FB0C584FF0000706
:104C70004FF00005E6FB0E87A1FB08C6A0FB07CEA0
:104C800016EB0E0645F10005E1FB076515F1E04E58
:104C90007EBFA4F580345FEA46066D4116F18007B9
:104CA00045F100054FEA17274FEA066647EA056710
:104CB000A6F1DE46B6F1805F4FEA15251FD93846CA
:104CC00024F0010C05EBC471BCF1FE6F01EB0C117B
:104CD00002D8F0BCBDE8008124425CBF01F5801E13
:104CE0009EEAC47F02D4F0BCBDE80081244238D4DF
:104CF000F0BCA1F1C041BDE8004100F07FBA4FEA2D
:104D0000D22242EA43524FEAD323A7FB02864FEA5C
:104D1000D02040EA415007FB03661EEA0E0F4FEA1F
:104D2000D12105FB026658BFA6EB0056B6EB005634
:104D30004FEA520E4EEAC37E18EB0E0E56EB530EA0
:104D4000BDD518EB02085E417F1C55F10005B6E7A2
:104D50004FF480154FF000074FF000064FF00008A9
:104D6000ADE7F0BC4FF0000001F1C04101F000419F
:104D7000BDE8008111EA0C1F0CEA131500D00CE00D
:104D800013EA0C1F00F025804FF00000F0BC81EA10
:104D9000030101F00041BDE80081F0BCBDE8004125
:104DA00081EA030100F02ABAF0BCBDE8004170B509
:104DB00000F0D6F9097EFC3E00F007B881EA030155
:104DC0004FF0000001F00041704781EA030100F05C
:104DD00015BAF0BCBDE800414FF000002149704712
:104DE000FFFDFBF9F7F5F4F2F0EEEDEBE9E8E6E4B0
:104DF000E3E1E0DEDDDBDAD8D7D5D4D3D1D0CFCD37
:104E0000CCCBCAC8C7C6C5C4C2C1C0BFBEBDBCBB6F
:104E1000BAB9B8B7B6B5B4B3B2B1B0AFAEADACAB6A
:104E2000AAA9A8A8A7A6A5A4A3A3A2A1A09F9F9E44
:104E30009D9C9C9B9A9999989797969595949393F6
:104E4000929191908F8F8E8E8D8C8C8B8B8A89898D
:104E50008888878786858584848383828281818010
:104E60000000FF070000F87F51EA030C17D41CF57F
:104E7000801F58BFBCF5801F00F10680994218BF03
:104E8000704708BF9042704707D711F5801F58BF81
:104E900013F5801F19D499427047894270471CF559
:104EA000801F08D5BCF5801FF7D58B4218BF70470F
:104EB00008BF824270474FF4001C1CEB410F38BF03
:104EC0001CEB430F01D28B42704770B500F048F9DC
:104ED000922449004FF000514FF08053FFF760BE1D
:104EE0004FEA41034FEA5353A3F58063D3F11E0306
:104EF000C8BFD3F1210C0CDD4FF0004242EAC122C1
:104F000042EA505232FA03FC8CEAE17CACEBE170ED
:104F10007047102BC4BF0020704703F5787CBCF1AC
:104F2000FF3F04D06FF0004282EA2100704770B565
:104F300000F016F94992248000207047F2E710F043
:104F4000004248BF4042B0FA80F310FA03F10AD0A1
:104F5000C3F11D0303F580634FEA415002EB035296
:104F600002EBD12170474FF000007047B0FA80F398
:104F700010FA03F10AD0C3F11D0303F580634FEA71
:104F800041504FEA035202EBD12170474FF000002D
:104F90007047000051EA030C17D41CF5801F58BF5E
:104FA000BCF5801F00F10680994218BF704708BF0A
:104FB0009042704707D711F5801F58BF13F5801F27
:104FC00019D499427047894270471CF5801F08D553
:104FD000BCF5801FF7D58B4218BF704708BF8242CF
:104FE00070474FF4001C1CEB410F38BF1CEB430F04
:104FF00001D28B42704770B500F0B2F8922449009C
:105000004FF000514FF08053FFF7CABDDFF848C1A1
:1050100070B51CEA111E1EBF1CEA13159EEA0C0F88
:1050200095EA0C0F00F06F8081EA030423EA4C1329
:105030004EEAD47E21EA4C1141F4801143F48013EE
:10504000AE44A1FB024CA0FB0365AEF17F7E361996
:1050500055EB0C05A1FB034C4CF10003A0FB021C1B
:1050600016EB0C06654153F10003094218BF46F0E8
:10507000010613F4007F0BD14FEA03314FEA0530EC
:10508000340341EA155140EA16506FF003020AE07A
:105090004FEAC3214FEAC520F40241EA555140EAE4
:1050A00056506FF0020202EB2E4201EB025585EAE8
:1050B000CE710AD05FEA440C18BF24F0004450F1CE
:1050C000000041F1000120EAD47040F2FE7C62450C
:1050D00000D270BDA84214BF4FF080444FF040444E
:1050E000002E08BF0024BEF1806FA8BFA1F1C0410F
:1050F000BDE8704080F282804FF0000001F1C041B5
:1051000001F0004170479EEA0C0F0CEA131518BF1E
:1051100095EA0C0F06D04FF0000081EA030E0EF066
:10512000004170BD00F01CF88900013E00F007B896
:1051300000F009B84FEA430C5FEA5C5C08D081EAF2
:10514000030100F05BB84FEA410C5FEA5C5CF6D10A
:105150004FF00000014970470000FF070000F87F92
:105160000EF1020E2EF0030E5EF8046B364205D4EB
:10517000012A43EB030515F5001F12D8012841EB66
:10518000010C1CF5001F0CD80ED14FEAD17C15F58F
:10519000001F0CEB4C0C0CF1020C08BF4CEBD37C49
:1051A00004E04FF0080C01E04FEAD37C0CEB4C0517
:1051B00026FA05F606F00706B6F1040C06D20EEB49
:1051C000860CBDE870404CF0010C6047DFE80CF045
:1051D000090B02024FF000414FF00000A1F5002141
:1051E00070BD19461046012851EB010418BFD4F5D3
:1051F000001484BF002001F0004170BD0808A0F534
:1052000000114FEA3101704753EA010C17D41CF525
:10521000801F58BFBCF5801F00F106808B4218BF6D
:10522000704708BF8242704707D713F5801F58BFE9
:1052300011F5801F19D48B4270479B4270471CF5B3
:10524000801F08D5BCF5801FF7D5994218BF70475D
:1052500008BF904270474FF4001C1CEB430F38BF4F
:105260001CEB410F01D2994270470FB40CBC03BC38
:10527000FFF7C1BE91EA030F10B581F000413FF581
:10528000E7AB83F0004300F009B8000010B591EAE5
:10529000030F48BF83F000433FF5DAAB841A71EB8C
:1052A000030C07D212198CF0004C43EB0C03001BCB
:1052B00061EB0C01DFF8A4E14FEA1154A4EB135C9D
:1052C0001EEA430F18BF9EEA445F00F0B08023EA55
:1052D0006E03524221EA0451C3EB6E0338BF5B1EDA
:1052E000DCF1200E25D322FA0CFE10EB0E0043FA5F
:1052F0000CFE41EB0E01CCF1200E03FA0EFE10EB7A
:105300000E0051F10001CCF1200E29D412FA0EF258
:1053100001EB0451BDE8104058BF7047401C1CBF52
:10532000B2F1004F704700280CBF491C20F001006B
:10533000704712EB020E43EB030218BF4FF0010E51
:105340004EEA4202ACF1200CDCF11E0E54D943FAB5
:105350000CFE10EB0E0051F1FF31CCF11E0ED5D535
:105360000EF1010E12FA0EFE404141EB010101EB7C
:10537000445C5FEA5C5C10D910EBDE7001EB045119
:1053800038BFBEF1004FBDE8104018BF704700287D
:105390000CBF491C20F00100704730D24FEAD42CDA
:1053A00011F5001124F400641BD0B1FA81F20B3A1C
:1053B000A41AA41ED2F12003914030FA03F319433A
:1053C000904001EBCC71002C01EB0451BDE8104082
:1053D000A8BF704701F1C0414FF0000001F000414B
:1053E0007047B0FA80F310FA03F100D110BDE41A4F
:1053F000173C4805C90AE4E701EB045110BD491008
:1054000001EB0451BDE810404FEA300002E04FF0DC
:10541000000170474A0008BF0042F8D0B2F5001FF3
:1054200028BF704701F000414FF0000070479EEA2E
:10543000445F07D011EA5E0FBDE8104004BF0021B1
:1054400000207047BDE8104070B5FFF789FE00BF2F
:1054500040DFF63E83F00041104670470000E0FF59
:1054600043004FEAD30C4FEA3C0C43401FBF4007B8
:105470000CF1605113F0FE4F70471CF0006F03D128
:1054800000200CF0004170470CF0004343EA5070DC
:1054900010B540EACC0000F048FA00BF00000092CE
:1054A0004FEA0001FFF7AABE4FF000414FF00000A5
:1054B000A1F500217047000090EA010F48BF81F07C
:1054C000004100F18482421A3CBF801A89184FEAD9
:1054D000D0524FF07F4C1CEA410FA2EBD15318BFC2
:1054E0009CEA026F00F03B804FF0004C4CEA002039
:1054F0004CEA012121FA03FC10EB0C0C1ED202F144
:10550000FF325FEA1C2040EBC25038BF70471CF0EE
:105510007F0F4FEA400C18BFBCF17F4F38BF704778
:10552000C3F12003994008BF20F00100BCF17F4F78
:1055300038BF7047A0F1C04000F03DBA4FEA3C00D0
:10554000000A40EBC25028BF1CF0FF0F4FEA400C8E
:10555000E6D018BFBCF17F4F38BF7047EAE79CEA3E
:10556000026F05D010EA5C0F08BF00F000407047E2
:1055700010B500F0DAF900BF64FBBE3E401058BF22
:10558000C0F14040491058BFC1F140418142EFF3A2
:10559000008070474FF47F0C1CEAD0121EBF1CEA3B
:1055A000D11392EA0C0F93EA0C0F00F0858090EA79
:1055B000010F48BF42F4807240F4000C41F4000037
:1055C0002CF07F4120F07F4000B58142A2EB030226
:1055D0000FF2081CACEB504EC0F100009EF800E04A
:1055E0004FEA4E0E00FB0EFC38BF49004FEA2C1C60
:1055F00002F5FA020CFB0EF34FEACE1E4FEA112C15
:105600004FEAC1210EEB635E42EB22420EFB0CFC23
:105610004FEA1C5300FB03114FEA112C4FEA0131F2
:105620000EFB0CFC4FEADC4C00FB0C11C14228BF06
:1056300009184CEB03335DF804EB10EB410143EB2D
:10564000C250B2F57C0F38BF704729D512F0F00F69
:105650001CBF00F1C04000F0004070470081828311
:105660008485868788898B8C8D8E8F919293959671
:1056700097999A9C9D9FA0A2A3A5A7A8AAACAEB0FB
:10568000B2B3B5B7B9BCBEC0C2C5C7C9CCCED1D400
:10569000D7D9DCDFE2E6E9ECF0F3F7FAFE00000030
:1056A0004FEA400C0CF1807CBCF17E4F28BF704764
:1056B000B0F1C04000F07FB990EA010F0CEAD113BD
:1056C00048BF42F48072624538BF634507D213F485
:1056D0007F0F16D080EA010000F00040704710B53F
:1056E00000F023F9097EFC3E00F005B880EA0100D5
:1056F00000F00040704780EA010000F0004000F038
:105700005AB912F47F0F04BF0248704780EA0100C3
:1057100000F051B90000C07F41000B0ED3F19E0292
:1057200008D950F400034FEA032323FA02F048BFDC
:105730004042704710B500F0F8F800BF499224804D
:10574000002070476FF0004282EA2000704700009E
:10575000C10DD1F19E0206DB4FEA002343F0004366
:1057600023FA02F07047004207D54FEA4001B1F139
:10577000FE4F02D24FF00000704710B500F0D5F890
:1057800049922480002070476FEA20007047000093
:1057900010F0004148BF4042B0FA80F310FA03F223
:1057A000C3F19D030BD051EAC35101EB1220530604
:1057B00038BF704700F1010008BF20F001007047BA
:1057C00050EA010C00F113801CF5000F58BFBCF526
:1057D000000F01D48842704707D710F5000F58BF5B
:1057E00011F5000F15D488427047894270471CF5A7
:1057F000000F04D5BCF5000FF7D5814270474FF07C
:10580000807C1CEB400F38BF1CEB410F01D2814262
:10581000704710B500F089F8922449004FF000500D
:105820004FF08051FFF7AABE4FF47F0C1CEAD01254
:105830001EBF1CEAD11392EA0C0F93EA0C0F00F082
:10584000478090EA010F48BF42F480724FF0004C4D
:105850004CEA00204CEA012102EB0302A0FB0113F9
:10586000A2F50002002918BF43F001035B0028BF26
:105870004FEA330342EB22425FEA132C4CEBC25057
:105880002EBFBCEB436FB2F57C0F70474FEA036C41
:10589000BCF1004F08BF20F00100B2F57C0F38BF0B
:1058A00070470BD582F0FF0212F5803FC8BF7047EA
:1058B00000F1C040D8BF00F00040704700F5000C78
:1058C0005FEA4C0C48BF7047B0F1C04000F073B8BD
:1058D00090EA010F0CEAD11348BF42F4807262458E
:1058E00038BF634504D280EA010000F000407047F1
:1058F00010B500F01AF800BF8900013E00F007B8AB
:1059000000F009B85FEA410C5FEA1C6C08D080EA3D
:10591000010000F050B85FEA400C5FEA1C6CF6D161
:105920004FF00040A0F5800070470EF1020E2EF0FF
:10593000030E5EF8044B244204D44FEA4102B2F154
:105940007F4F11D84FEA4003B3F17F4F0CD80ED1EF
:105950004FEAD07CB2F17F4F0CEB4C0C0CF1020CF7
:1059600008BF4CEBD17C04E04FF0080C01E04FEA9B
:10597000D17C0CEB4C0324FA03F404F00704B4F1DB
:10598000040C06D20EEB840CBDE810404CF0010C68
:105990006047DFE80CF0070802024FF00040A0F576
:1059A000800010BD0846420018BFD2F1807288BF47
:1059B00000F0004010BDFF2141EAD050C005704703
:1059C00090EA010F48BF81F000413FF57CAD421ADB
:1059D00004D882F00042A0EB020011444FEAD052FA
:1059E0004FF07F4C1CEA410FA2EBD15318BF9CEA49
:1059F000026F4AD04FF0004C4CEA00204CEA0121E3
:105A000021FA03FCB0EB0C0C0FD412F0FE0F36D0D1
:105A10005FEA4C001DD5001240EBC25038BF704702
:105A20001CF03F0F18BF70470BE0A2F101025FEAC4
:105A30001C2040EBC25038BF70471CF07F0F18BFCE
:105A40007047C3F12003994014BF401E20F00100AD
:105A5000704780084FEA122308BF7047B0FA80FCF5
:105A6000A2EB0C02CCF1280C60FA0CF093EA122F96
:105A700004BF00EBC25070474FEAC3707047130A6F
:105A80005FEADC1008BF7047F6E79CEA026F04D0BB
:105A900010EA5C0F08BF0020704710B5FFF745FF04
:105AA00040DFF63E81F0004070474FF00000704745
:105AB0000CF00F03092B08BF082000F05F800A2BB1
:105AC0000BD0082B18BF704708BF1CF0400F0AD03E
:105AD0004FF000004FF0000170471CF0400F18BF5E
