:020000040800F2
:10000000A00A0020B50100086F2E0008CD2B0008C3
:100010006D2E0008551E0008C933000800000000BE
:10002000000000000000000000000000732F000826
:10003000571E000800000000712F0008752F0008EF
:10004000CF010008CF010008CF010008CF01000850
:10005000CF010008CF010008CF010008CF01000840
:10006000CF010008CF010008CF010008CF01000830
:10007000CF010008CF010008CF010008CF01000820
:10008000CF010008CF010008CF010008CF01000810
:10009000CF010008CF010008CF010008CF01000800
:1000A000CF010008CF010008CF010008CF010008F0
:1000B000D92F0008DD2F000811300008CF010008FB
:1000C000CF010008CF010008CF010008CF010008D0
:1000D000CF0100089D330008CF010008CF010008C0
:1000E000CF010008CF010008CF01000800F002F89E
:1000F00000F050F80AA090E8000C82448344AAF172
:100100000107DA4501D100F045F8AFF2090EBAE86F
:100110000F0013F0010F18BFFB1A43F0010318473B
:100120001461000034610000103A24BF78C878C11F
:10013000FAD8520724BF30C830C144BF04680C60ED
:10014000704700000023002400250026103A28BF35
:1001500078C1FBD8520728BF30C148BF0B60704739
:100160001FB59DE8030000F0EBFD00F0CDFD04009D
:100170000020002104F05EFD401C60600020002192
:1001800004F042FDE06000F065F91FBD10B500F01D
:10019000CAF910BD00F0FEF91146FFF7E1FF03F0C8
:1001A00033FF00F09DFD03B4FFF7F0FF03BC00F048
:1001B000ABFF00000948804709480047FEE7FEE71B
:1001C000FEE7FEE7FEE7FEE7FEE7FEE7FEE7FEE707
:1001D00004480549054A064B70470000D72F000820
:1001E000ED000008A0040020A00A0020A0060020C6
:1001F000A00600200FB4044910B503AA029800F02D
:100200007BF810BC5DF814FB980300204FF000024F
:1002100000B5134694469646203922BFA0E80C50FC
:10022000A0E80C50B1F12001BFF4F7AF090728BFD7
:10023000A0E80C5048BF0CC05DF804EB890028BF53
:1002400040F8042B08BF704748BF20F8022B11F07C
:10025000804F18BF00F8012B704700004FF0013CA1
:1002600050F8042B51F8043B9A4221D1A2EB0C0325
:10027000934313EACC1317D150F8042B51F8043BE5
:100280009A4215D1A2EB0C03934313EACC130BD182
:1002900050F8042B51F8043B9A4209D1A2EB0C030D
:1002A000934313EACC13DBD04FF00000704700BF3C
:1002B000D01A01BAB1FA81F101F0180122FA01F065
:1002C000CB40C1F12001DBB2C0B2C01A2CFA01F35D
:1002D000D11A914311EAC311E6D1704770477047B4
:1002E000704710B500F06CF8006810BD10B50446FA
:1002F00000F066F8046010BD074B70B50D467B44F6
:1003000000F071F80446284600F0A0F810B14FF054
:10031000FF3070BD204670BD0F3C00000FB40023BD
:1003200000B589B00CA900910B99CB60214B7B449F
:100330000693214B7B44079304236FF00042CDE9E1
:1003400001321E4A7A446B4608920246002005F0AC
:1003500055FE09B05DF814FB70B506464FF0FF304E
:1003600015460C46324686B00091CDE9010169463A
:100370000020049004A8FFF7D1FF0246049821183A
:1003800025B108B1084600E02046286004980028FE
:100390000DD0002A02DD0098884208D03246081BA2
:1003A00069460094CDE9010404A8FFF7B7FF06B041
:1003B00070BD0000DB000000F300000081000000C1
:1003C000004870474004002010B5044600F008F9CA
:1003D0000068005D00F0010010BD000001694A1CCA
:1003E00002610878704700B58FB0CDE90131002176
:1003F000059105497944CDE903101146684600F09E
:100400001EF90FB000BD0000E5FFFFFF426842B1DA
:10041000016811F8013B23B1521EC0E900121846D1
:1004200070470121C160881E704742685AB1C36895
:10043000016843B983688B4205D0491E521CC0E94C
:100440000012002070474FF0FF307047007B00F033
:100450008000704710B542485421FFF7D7FE41484D
:100460005421FFF7D3FE40485421FFF7CFFE3F4908
:100470003B483C4A3F4B08603D490A603A49196095
:10048000531C0365481C1065012008653B48344A2D
:1004900039A1784400F088FB20B9384878440A38FC
:1004A00000F027FC37482F4A35A1784400F07CFB48
:1004B00020B9344878440A3800F01BFC32482A4AF4
:1004C0002FA1784400F070FB20B92F4878440A38F7
:1004D00000F00FFC40232248DC000021224600F0FF
:1004E0003FFB20B125487844543800F002FC1D48F9
:1004F00022464023002100F033FB20B121487844FC
:10050000543800F0F6FB184822461023002100F072
:1005100027FB002806D01C487844BDE81040563818
:1005200000F0E7BB10BD104870B5006D20F001046D
:100530000B4800F0AFFB0B4800F0ACFB0A4800F0A2
:10054000A9FB09E0206D20F00105204600F0A2FB88
:10055000204600F04DF82C46002CF3D170BD000071
:100560004403002098030020EC0300201800002022
:100570001C0000202000002072000000CC5B000066
:1005800077000000BB5B0000AB5B000000487047D9
:10059000400400207546FFF7F9FFAE4605006946A6
:1005A000534620F00700854618B020B5FFF710FE2F
:1005B000BDE820404FF000064FF000074FF0000864
:1005C0004FF0000B21F00701AC46ACE8C009ACE8E5
:1005D000C009ACE8C009ACE8C0098D46704700000E
:1005E00010B500F091FB001D10BD00BF4946000092
:1005F00070B50446051F00F083FB0068002C14BF93
:10060000446870BD002C18BFAC423CBF20466468F3
:10061000F8D301680A18AA4218BF456003D12A68B6
:1006200005461144016028684119A1421CBF6C6055
:1006300070BD6168696021680844286070BD2DE95B
:10064000F04106460024D6E90170F5688046304640
:1006500003E04146B847641C3046A8470028F8D15B
:100660002046BDE8F08100002DE9FF4F06468BB023
:100670000878FF2806D0491C2D2805D000244FF00B
:10068000000908E000200CE00124F8E709EB8903E9
:10069000491C00EB43090878FF28F7D114B1C9F1D0
:1006A00000008146107800252C46AA4629462D28B0
:1006B00001D02B2804D1521C2D2813D000208246B3
:1006C0008B461078FF280FD04FF0000C0A21521CE7
:1006D000A5FB017804FB018105FB0C11C5194BEB4F
:1006E0000104EEE70120EAE7002108464FF0000090
:1006F000BAF1000F02D000EB80004008C0F3815730
:10070000012F01DD4FF0FF370E9955EA040009EB88
:1007100001080BD04FF0020918F5FA7F16DA4FEAFC
:10072000CA70002F706008DD012007E04FEACA7030
:10073000C6E900B00FB0BDE8F08F00203060FFF7D1
:100740003FFEC0F800901821084616E0B8F5FA7F81
:1007500018DD002F02DAF748784401E0F6487844C3
:10076000D0E90010C6E9001040EACA707060FFF7D7
:1007700027FEC0F80090142108460FB0BDE8F04FE6
:1007800005F0D9BB002108464FF00000B8F1000188
:10079000099002DAC7F1000200E03A4601DAC8F136
:1007A000000106A800F02AFB06AB93E8070003ABA4
:1007B00083E8070044F23E005BEA040100905846DB
:1007C00004D144F21E012C465D460091210C09041F
:1007D000014306D10099240444EA15442D0410393C
:1007E000009104F07F41014306D10099240244EABC
:1007F00015642D020839009104F07041014306D1BF
:100800000099240144EA15742D01091F009104F098
:100810004041014306D10099A40044EA9574AD001B
:10082000891E009104F00041084304D100986D191D
:100830006441401E00904FF001033A466846B8F10B
:10084000000FCDE9014503A902DD01F0CCF901E07B
:1008500001F09FF9BAF1000F04460D4601D084F073
:100860000044002108464FF00000099940F2FF774C
:10087000484010F00C0F07D124F00040284303D06B
:10088000C4F30A50B84212D1FFF79AFDC0F80090A5
:10089000C4F30A50B8420AD1A8487844D0E90010FD
:1008A000C6E9001004F000410843706042E7C6E961
:1008B00000543FE72DE9FF4F1F464FF0000A4FF06D
:1008C000FF38454691B0D7E90146CDF83CA000F08D
:1008D0001BFAC0680168405C1090B96912986D1CE1
:1008E0008847396A814688470028F6D1B9F1FF3F29
:1008F0000AD0002E24F4D06411DDB9F12B0F08D0FA
:10090000B9F12D0F0BD102E0404615B013E744F4C6
:100910008064B96912986D1C8847761E814660050F
:1009200004A901D52D2000E02B20002E01F1010BA0
:100930000DF130088DF810003FDDB9F1690F08D0D6
:10094000B9F1490F05D0B9F16E0F02D0B9F14E0FD0
:100950001CD13B4601A8009580E85002DDE9121247
:100960006FF0020005F04EFBC11CCED10EE0B9695C
:1009700012986D1C884781461398761E44F40074C3
:1009800005600F98401C002E0F9016DDB9F1300F56
:10099000EDD0B9F1780F02D0B9F1580F0DD10F9801
:1009A00001280AD13B46CDE90054DDE91212001FAF
:1009B000029605F025FBC11CA7D1109989453ED1AF
:1009C00044F0800406E01399681CAAF1010A44F47B
:1009D00000740860B9696D1C1298761E884730282B
:1009E0008146F0D02BE01099894505D1200603D42B
:1009F000761E44F0800418E0484603F0A2F808B3DD
:100A0000761E0DF123018B4544F4007408D2A9F140
:100A100030000BF8010B200607D5AAF1010003E016
:100A2000200602D40AF101008246A00502D51399DE
:100A3000681C0860B96912986D1C88478146002EB1
:100A4000D1DC53E0002E51DDB9F1650F02D0B9F1D0
:100A5000450F4BD1A00549D5B9696D1C1298761E7A
:100A600024F440748847002E81460CDD2B2804D0E6
:100A7000B9F12D0F07D144F48074B96912986D1C37
:100A80008847761E8146E00501D52D2100E02B2107
:100A900008F8011BCDF8008021E0761E0DF1390128
:100AA000884544F400740CD2A9F1300010F0FF0026
:100AB00088F8000002D10099884509D908F1010899
:100AC00006E0E00501D51E4801E042F20F708246C3
:100AD000B96912986D1C8847814613980560002EED
:100AE00004DD484603F02DF80028D6D1F9691298A4
:100AF0008847FF2053468BF8000088F8000000204C
:100B00000A900B9004AA0CA90AA8FFF7ADFDA00556
:100B100002D46FF00100F8E614F0240F12D0E007C1
:100B20001CD13868DDE90A12031D3B600068C0E98A
:100B3000001213E0005B0000F25A0000B6590000FA
:100B4000F1D8FFFF0AA9684602F08AFFE00705D145
:100B50003868009A011D3960006802602846D4E6B2
:100B600070B5C468A50713D0650211D4B2F5807FB3
:100B700009D0B2F5007F06D0B2F5806F08D101230D
:100B800000F1240106E05D1E6FF07F46B54201D3FF
:100B9000012070BD0161C361416024F470611143A3
:100BA000C160002070BD00002DE9F0410C460746F1
:100BB0001646104600F06EF82078611C61280AD0B5
:100BC000722802D077283CD102E00125002405E0FC
:100BD0000225042402E0082448F2020511F8010B62
:100BE0002B2806D0622809D011F8010C74280AD0ED
:100BF0000BE045F0030544F00204EFE745F004057F
:100C000044F00104EAE744F010043846214602F0BB
:100C1000BDFF411C15D00021316171604FF400719E
:100C2000F560F1617061200704D530460222002191
:100C300000F056F9306D40F0010030653046BDE8F7
:100C4000F0810020FBE72DE9F0410D460646104CEF
:100C5000206DC10704D0410804D020F00104F7E75B
:100C600022460EE0542000F09AF807000ED0206DC6
:100C700047F001010843542120653846FFF7C6FAC2
:100C80003A4629463046BDE8F0418DE70020D6E7D8
:100C9000440300202DE9F04704464FF000094FF0CF
:100CA000FF37C568D4E90486A80707D0204600F0BE
:100CB000C7F9304602F04CFF002802DA3846BDE89A
:100CC000F087280502D54046FFF792FC4C212046CC
:100CD000FFF79CFA206D20F0010020654846EEE702
:100CE00010B50446AFF300802046BDE81040FFF782
:100CF0005ABA10B500F0EEF9BDE8104000F0E4B9C2
:100D000000487047480400200048704760040020F5
:100D1000704770477047704738B504460A46002050
:100D20006946AFF30080002808BF38BD024600992D
:100D3000204600F0F6F9012038BD012000F070BC1B
:100D4000F8B5AFF30080054600200C46102000BF28
:100D50000646A819A0420DD9324669460020AFF3D5
:100D60000080070008BF00F05BFC0098A04218BF9D
:100D70000546C419FFF7C4FF05600746F01D20F0C3
:100D800007004619284600F0C5F9B44208BFF8BD6F
:100D9000A21B31463868BDE8F84000F0C2B970B512
:100DA0000646FFF7ADFF056806F10B0020F00704CB
:100DB000B4429CBF002070BD2B466A68BAB110686F
:100DC000A04210D304F1080188423CBF506858602B
:100DD00007D35168101941601168091B0160586000
:100DE0001460101D70BD13465268002AE7D12146D9
:100DF0002846FFF791FF0028DED170BD2DE9F047AE
:100E0000814616468AB0354878440DC88DE80D00F5
:100E100032487844801C03AC0DC884E80D0041F6CC
:100E20009B300844372190FBF1F290FBF1F5A5F1DE
:100E3000800501FB12041B3C02D56442012000E046
:100E40000020DFF898A080460027FA44AAF1BE0AE5
:100E50000EE0E0070AD03246684607EB470101235F
:100E60000AEB810100F0AAFE8DE8070064107F1CE8
:100E7000002CEED1194F7F44AE3F19E0E80715D0A2
:100E800007EB04100DF1180A90E80E008AE80E0036
:100E9000C068F04201D1981908903246012306A992
:100EA00003A800F08BFE03AB83E807006D10641C01
:100EB000002DE3D14FF0010332466946B8F1000F2F
:100EC00003A802D000F050FE01E000F077FEC9E96F
:100ED0000001C9F808200AB0BDE8F08710540000EE
:100EE0002DE9F041044616460D464769007B800710
:100EF0002ED0384602F03EFE50BB3EB3012E02D04B
:100F0000022E25D104E0204600F050FB05441DE0F0
:100F1000384602F029FEE168002841F01001E16046
:100F200005DA204600F058F80120BDE8F081C90339
:100F30000BD56268E16A914200D81146A26911445A
:100F40002269891A814200DD08460544002D01DA34
:100F50000220EAE7E16A6068E268814206D2910312
:100F6000E06203D522F4003141F01002A6690027A7
:100F7000AE4213DCE16A814201D90B4600E0034630
:100F800003EB060C2369ACEB030CAC4506DD814298
:100F900001D98C4600E084469C4505D1A7602760B6
:100FA00042F02000A5620DE0AD1BE669AE1B814258
:100FB000A66000D90846C01A281A20605819606037
:100FC00022F0200003490840E060002084F84870C7
:100FD000ABE70000BFCFD7FFC16821F4001141F09B
:100FE0008001C16000218160016070472DE9F047F8
:100FF000814614460E464FF0FF383248D56857698F
:10100000054209D03846A16902F0EEFD002811DB47
:101010002C48C0430540E5602B46324649463846D9
:1010200002F0E5FDA16920F00042B21A1144002847
:10103000A16103D02046FFF7CFFF4046BDE8F0870F
:1010400070B504460569C06A6168884200D80846E0
:10105000E16821F42011E160C90312D5A84208D04B
:101060002246411B2846FFF7C1FF10B14FF0FF3069
:1010700070BD0020E562C4E90150E06820F48030D2
:10108000E060002070BD10B50446C06820F020006C
:10109000E060A16AA06988420DD02046FFF7D0FF2A
:1010A000E06820F4405040F01000E060A06AA061C9
:1010B0002069E062606044F24001E0688843E060DB
:1010C00010BD000010000200002801D000F01CB884
:1010D0007047000010B5014602A000F088FA012018
:1010E00010BD000053494752545245443A205265BE
:1010F0006469726563743A2063616E2774206F704F
:10110000656E3A200000000001491820ABBEFEE7E2
:101110002600020000210160C0E901107047102084
:101120007047034640688C46002818BF88423CBF81
:1011300003464068F8D318681844884207D00CF179
:10114000030020F00700001D411A521A0146081D35
:101150000A60FFF74DBA00002DE9FF4F1F464FF020
:101160003C0987B04FF00042DDE9141001F101089D
:10117000DDF858A002EA4050039000200590834615
:10118000054604460490B969461E08988847AAF1A6
:10119000010A0290BAF1000F3BDD02982E2815D00B
:1011A000102100F05FFA00282EDB4FF0010B0599AB
:1011B000014317D0B9F1000F0BDB4A46C11700F00D
:1011C0003EFA05430C43A9F1040905E0012004900F
:1011D0000BE008B145F0010501200590049820B905
:1011E000361D02E0049800B1361FB969089808F16D
:1011F00001088847BBF1000FAAF1010A0290C9D08B
:101200000999C1F80080C5E70298702808D05028D5
:1012100006D0F96908988847BBF1000F14D04FE059
:10122000002002900120BBF1000F049009D0B969A1
:10123000089808F101088847AAF10109B9F1000FDF
:1012400007DCF969089888476FF001000BB0BDE82A
:10125000F08F2B2804D02D280CD14FF0FF300490B4
:10126000B969089808F101088847A9F10109B9F19D
:10127000000FE6DD411CE4D00A2100F0F3F900285C
:10128000DFDB029908F1010801EB810100EB41006D
:101290000290B969089888470A2100F0E3F9099A91
:1012A000A9F10109B9F1000FC2F8008001DD0028A1
:1012B000E7DAF969089888470499029800FB016603
:1012C00055EA040004D004F04041090002D006E0D1
:1012D000039898E0A40044EA9574AD00B61E04F0AB
:1012E0000041080002D16D196441761E159810F076
:1012F000240F03D04FF00B095C4803E04FF028099E
:101300006FF07D008246564507DAAAEB0601894454
:10131000B9F1410F01DD4FF0410901200021A9F190
:10132000010200F08CF9024628400B462140084398
:1013300001D0012100E00021501E029143F1FF3154
:1013400028402140084301D0012000E000200299FC
:10135000834651EA0B014FD0002108464FF00000B0
:10136000039900F4400039B100EB80004FF44001D4
:1013700000EBD07001EA60008015012802DD4FF01B
:10138000FF3000E013D0401C36D0029860B3BBF1B0
:10139000000F0CD14A460120002100F050F92840EE
:1013A0002140084301D0012000E00020E0B10120ED
:1013B0004A46002100F043F9034640190A466141BC
:1013C0002D1A8C4111D3B9F1400F09DD159810F099
:1013D000240F02D0AAF1340603E0AAF1170600E0B8
:1013E000761C00254FF0004406E05B1E42F1FF3200
:1013F00020EA030521EA0204CAF10100B04206DA3C
:101400001B49039808430190002000900EE0039AC6
:10141000C4F3D321E80A0A43164940EA44500A4378
:101420003146CDE90002684602F080FB159810F0C5
:10143000240F0BD01598C00715D13868DDE90012CC
:10144000031D3B600068C0E900120CE002A8694679
:1014500002F006FB1598C00705D13868029A011DF5
:101460003960006802604046F0E6000002FCFFFFC1
:101470000000F07F0000F03F2DE9FF4F92461D462F
:1014800085B04FF00041DDE9124BDDE914727F1E9B
:1014900001EA4B50414940F0FF4940EA0108002170
:1014A00022F020004928049102D04E2828D04CE098
:1014B0003BA0012607C88DE80700A9690698641CAF
:1014C00088477F1E014606D41DF8060018B121F09A
:1014D000200181420BD0E96906988847032E34D059
:1014E000082E32D06FF0010009B0BDE8F08F761CF5
:1014F000032E01D0082EE0D1601CCAF80000DCE702
:10150000A9690698641C88477F1E2AD420F0200011
:10151000412826D1A9690698641C88477F1E20D4DB
:1015200020F020004E281CD1A9690698641C884729
:101530007F1E48F4002849F48009CAF8004001D40D
:10154000282806D0E969069888475FEACB7012D050
:1015500022E0A9690698641C88477F1E01D40028F0
:1015600003DAE96906988847BCE72928F1D1641CA9
:10157000CAF80040E9E71BF0240F07D02868049957
:10158000031D2B600068C0E9001805E02868021DF3
:101590002A600068C0F800902046A5E70000F07FB0
:1015A000494E46494E4954590000000010B50146C5
:1015B000C268900703D0900607D5886A0AE0FEF754
:1015C000FFFE01210160881E10BD8B694868184428
:1015D0000B69C01A91F848301BB191F84910401AB4
:1015E00010BD1103FCD50028FADD401E10BD70B5FA
:1015F00005460C460A2000E06D1C00F018F835B1D5
:1016000028780028F8D102E0641C00F010F814B12A
:1016100020780028F8D1BDE870400A2000F007B813
:1016200010B500F02DF8BDE81040FFF74DBD08B52E
:1016300069468DF800000320ABBE08BD7047B2F1CB
:1016400020030AD5C2F1200301FA02F120FA03F3C4
:1016500000FA02F041EA0301704700FA03F14FF08B
:10166000000070473A2800D2303820F02002412A8A
:1016700001D3A2F13700884201D34FF0FF30704709
:1016800010B5012805D0002103A0FFF7B0FF01200D
:1016900010BD09A1F8E7000053494752544D454D8C
:1016A0003A204F7574206F662068656170206D6503
:1016B0006D6F7279000000003A2048656170206DFE
:1016C000656D6F727920636F7272757074656400F6
:1016D00020F07F4C80EA030023F07F47ACEB070348
:1016E00003F57C5300F0004003F1FF032DE980492E
:1016F0004FEA154B09B44FEA144325EA0B4E24EA8E
:1017000003480FF2042606EB132749083E785FEAE8
:10171000320203FB0667C7F5000707FB06F64FEA30
:1017200054374FEAD64606F1020607FB066CCCF1A9
:10173000005C4FEA1C472CEA074C07FB06F40CFB45
:1017400006F504EB15464FEA961634BF00204FF01D
:1017500000404FEAD13706FB07FC4FEA1C4C0CFB5C
:101760000BF7D21B03FB0CF761EB07010CFB0EF729
:10177000B0EB074072EB17420CFB08F734BFA2EB4B
:101780000742B2EB074261EB17414FEA0C444FEAC4
:10179000910706FB07FC4FEA1C4C0CFB0BF7B0EB68
:1017A000C74072EB573203FB0CF734BFA2EBC742C2
:1017B000B2EBC74261EB57310CFB0EF7B0EBC70041
:1017C00072EB57720CFB08F734BFA2EBC702B2EB07
:1017D000C70261EB5771039F4FEA816141EA9211A1
:1017E00004EBCC044FEAD1374FEA826206FB07FCD8
:1017F00042EA90124FEA80604FEA1C4C0CFB0BF758
:10180000D21B03FB0CF761EB07010CFB0EF7B0EBEF
:10181000074072EB17420CFB08F734BFA2EB0742FC
:10182000B2EB074261EB17414FEA8C554FEA910743
:1018300004EB9C2406FB07FC4FEA1C4C0CFB0BF74B
:10184000B0EBC74072EB573203FB0CF734BFA2EB8F
:10185000C742B2EBC74261EB57310CFB0EF7B0EB5E
:10186000C70072EB57720CFB08F734BFA2EBC7023C
:10187000B2EBC70261EB577115EB4C254FEA816162
:1018800041EA92114FEA82624FEAD13742EA90125E
:1018900006FB07FC44F100044FEA80604FEA1C4C51
:1018A0000CFB0BF7D21B03FB0CF761EB07010CFBE6
:1018B0000EF7B0EB074072EB17420CFB08F734BF92
:1018C000A2EB0742B2EB074261EB174115EB1C1587
:1018D0004FEA813141EA92414FEA823242EA904234
:1018E0004FEA80304FEA0C7644F1000448EA0343A3
:1018F0004EEA0B484FF0000EB2EB080C71EB0307F9
:1019000024BF624639464EEB0E0E4FF0000B001816
:10191000524149414BEB0B0BB2EB080C71EB030747
:101920007BF1000B24BF624639464EEB0E0E4FF0A2
:10193000000B0018524149414BEB0B0BB2EB080C6A
:1019400071EB03077BF1000B24BF624639464EEB77
:101950000E0E51EA020718BF46F0010616EB0E768E
:1019600055F1000254F1000103D5BDE88901BDE83D
:101970000088BDE88901BDE80048B619524141EB35
:101980000101A3F10103704780807F7E7D7C7B7A1B
:101990007978777676757473727171706F6E6E6D1B
:1019A0006C6C6B6A6A6968686766666564646363C1
:1019B00062616160605F5F5E5E5D5D5C5C5B5B5A47
:1019C0005A595958585757565655555554545353B4
:1019D00052525251515050504F4F4F4E4E4D4D4D0F
:1019E0004C4C4C4B4B4B4A4A4A494949484848475A
:1019F0004747474646464545454444444443434398
:101A0000434242424241414146EA0646A3F57053F1
:101A10004FEA164646EA42564FEAD22242EA41527D
:101A200010B54FEAD121A3F1010300F02FF820F007
:101A3000004000F1020C00F0004701EB005011469D
:101A4000BCF5006F40EA070000D210BDBAF1000FEC
:101A50000AD01CB503B44FF004004FF004014FF05E
:101A600000000FBCBDE810404FF00001BBF1010FBA
:101A7000B9BF04484FF0FF310348002140EA070096
:101A800010BD00BFFFFFEF7F0000F07F002B9C46E2
:101A900030D477002BD01CB54FEA370703B44FF092
:101AA00010004FF01001BAF1000F06D0BCF1000F8A
:101AB000DCBF40F0080040F008014FF000000FBC10
:101AC000BDE810400BF1010BBBF1010F08BF5FEA4D
:101AD000170722BF12F1010211F101014FF000417D
:101AE00043F1000300F0004043EA00007047F9D3DF
:101AF0005708D0E746EA064613F1400F4FEA16466C
:101B00001FDD13F1200FDFBF16430A4600212033EB
:101B10005B42BED0C3F1200746EA064602FA07F749
:101B20004FEA164646EA0706C3F1200722FA03F2F7
:101B300001FA07F721FA03F14FF0000342EA070226
:101B4000A7E746EA020646EA06464FEA164646EA8E
:101B50000106BCBF46EA0646360C4FF000034FF0C4
:101B600000024FF0000194E72DE9804C9A4693461D
:101B700070B491E8380007C831EA400C48BF34EA35
:101B8000430C03D5FFF7A4FDFFF780FFF0BCBDE8D1
:101B9000008C2DE9804C9A46934670B491E8380049
:101BA00007C831EA400C48BF34EA430C03D5FFF7BD
:101BB0008FFDFFF729FFF0BCBDE8008C2DE9804CBC
:101BC0009A46934670B491E8380007C810F0804FE9
:101BD00008BF13F0804F03D100F01AF8FFF756FF4B
:101BE000F0BCBDE8008C2DE9804C9A46934670B459
:101BF00091E8380007C810F0804F08BF13F0804FFD
:101C000003D100F005F8FFF7FFFEF0BCBDE8008C43
:101C100020F07F4780EA030023F07F4C07EB0C03A2
:101C2000A3F57C5300F00040A3F1FE0392F0000FF7
:101C300000F0B38095F0000F00F077802DE90149A6
:101C40004FEA11404FEA144621EA004800FB06FC27
:101C500024EA064708FB06F607FB08F800FB07F72F
:101C600018EB06484CEB164C4FEA124B18EB0748A2
:101C70004FEA15464CEB174022EA0B4E0BFB06FCD5
:101C800025EA06470EFB06F607FB0EFE0BFB07F7E1
:101C90001EEB064E4CEB164C4FF000061EEB074EAB
:101CA0004CEB174B18EB0B0840F1000018EB0E0B38
:101CB00058EB000840F100008F1A4FF000013CBFC4
:101CC000C943661B14BFB5EB040C00213CBFC943DC
:101CD000F61B4FEA17444EEA8E0E27EA04454FEAF8
:101CE0001C4704FB07622CEA074C05FB07F70CFBBB
:101CF00005F604FB0CFC16EB074642EB174216EB0D
:101D00000C4642EB1C421BEB060658EB020241411B
:101D100046EA9E0601D5BDE80189B619524141EB5C
:101D20000101A3F10103BDE801894FEA14454FEA1F
:101D3000114724EA054621EA074C05FB07F406FB98
:101D400007F70CFB06F105FB0CFC11EB074144EB1C
:101D500017444FEA124711EB0C4144EB1C4422EAB2
:101D6000074C05FB07F206FB07F70CFB06F605FB25
:101D70000CFC16EB074642EB174216EB0C4642EB07
:101D80001C456A1854F1000148BF7047B61952410A
:101D900041EB0101A3F10103704795F0000F37D02B
:101DA0004FEA11424FEA144721EA024624EA074C5F
:101DB00002FB07F106FB07F70CFB06F402FB0CFC29
:101DC00014EB074441EB17414FEA154714EB0C4461
:101DD00041EB1C4125EA074C02FB07F506FB07F720
:101DE0000CFB06F602FB0CFC16EB074645EB174511
:101DF00016EB0C4645EB1C42121951F1000148BF8D
:101E00007047B619524141EB0101A3F1010370473C
:101E10004FEA14454FEA114724EA054621EA074CE8
:101E200005FB07F106FB07F70CFB06F24FF0000677
:101E300005FB0CFC12EB074241EB174112EB0C4285
:101E400051EB1C4148BF7047921841EB0101A3F1CF
:101E500001037047FEE7704770B5044600F004F9CF
:101E60000546601C02D004480078044400F0FCF8E9
:101E7000401BA042FAD370BD080000202DE9F84FA6
:101E8000DFF8B8910024A9F1040B23460F2709F1CC
:101E9000040AABF1040EC9E00125A5402A40AA427C
:101EA0007DD1674ED1F804C0ACEB0608B44532D002
:101EB00014DCBCF1030F3AD009DCBCF1000F2AD0CE
:101EC000BCF1010F1CD0BCF1020F31D11DE0BCF1FF
:101ED000110F17D0BCF1120F2AD119E0B8F5881FE5
:101EE00019D006DCB8F5803F15D0B8F5801F1FD19A
:101EF00011E0B8F5001F0ED0B8F5041F18D10AE0A4
:101F0000CB6815E0CB681B1D12E0CB6808330FE0EF
:101F1000CB680C330CE08B682BB1012B4FF008031E
:101F200003D0456104E0042302E0056100E00023E2
:101F3000FF2A01D8064601E000F104064FEA8405B5
:101F400001D9A5F12005D6F8008007FA05FC28EA9A
:101F50000C0803FA05F548EA0508C6F800804D6844
:101F6000ED0062D5374DAE6946F00106AE61AD6950
:101F700024F0030605F001050095334D06EB050C32
:101F8000DCF80850A607360F07FA06F825EA080518
:101F9000DFF8B880404503D14FF0000817E044E077
:101FA000DFF8AC80404502D14FF001080FE0DFF8C8
:101FB000A480404502D14FF0020808E0DFF8988085
:101FC000404502D14FF0030801E04FF0040808FA41
:101FD00006F848EA0508CCF808804D68D9F8006092
:101FE000ED024D4601D5164300E096432E604D6844
:101FF000DAF80060AD02554601D5164300E096437D
:102000002E604D68DBF80060AD035D4601D51643D8
:1020100000E096432E604D68DEF80060ED037546E3
:1020200001D5164300E096432E60641C0D682A46D5
:10203000E5407FF431AFBDE8F88F000008040140AF
:102040000000111000100240000001400008014093
:10205000000C014000100140001401400AB1016170
:1020600070470904FBE700000148806870470000E2
:10207000080000200248816802781144816070479E
:1020800008000020074810B5016841F01001016008
:10209000032000F075F80F2000F006F800F024F897
:1020A000002010BD0020024070B50D4D04464FF4D5
:1020B0007A712878B1FBF0F00A490968B1FBF0F0B9
:1020C00000F0DCFA48B9102C07D200222146501E3D
:1020D00000F036F800206C6070BD012070BD00007B
:1020E00008000020140000200C4808B5816941F068
:1020F00001018161816901F001010091C16941F033
:102100008051C161C06900F080500090044841686E
:1021100021F0E06141F08061416008BD00100240A3
:1021200000000140002809DB00F01F02012191405E
:102130004009800000F1E020C0F800117047000065
:10214000F0B40E4B1B680C46C3F30223C3F1070522
:10215000042D00D90425191D072901D2002300E010
:10216000DB1E012606FA05F1491E214099409E40DA
:10217000761E16403143F0BC01F03BB90CED00E097
:10218000064900F0070208684FF6FF03184040EACE
:102190000220034A10430860704700000CED00E085
:1021A0000000FA052DE9F0470F46050061D0434EC7
:1021B000306800F00700B84209D2306820F007000C
:1021C00038433060306800F00700B84251D12868C9
:1021D0003B4C810712D5400703D5606840F4E060AE
:1021E00060602878000703D5606840F46050606044
:1021F0006068A96820F0F000084360602878C00794
:1022000028D06868012810D02168022810D08907DA
:1022100000292EDA616821F0030101436160FFF7B4
:1022200023FF804641F288390DE021688903EFE7FA
:102230008901EDE7FFF718FFA0EB0801494502D936
:102240000320BDE8F0876068696800F00C00B0EB1F
:10225000810FEFD1306800F00700B8420BD9306829
:1022600020F0070038433060306800F00700B842C3
:1022700001D00120E5E72878400705D56068E968C6
:1022800020F4E060084360602878000706D56068A5
:10229000296920F4605040EAC100606000F038F81D
:1022A0006168084AC1F30311515CC84006490860DF
:1022B00006480068FFF7F8FE0020C2E70020024051
:1022C000001002404A600008140000200C000020AA
:1022D0000448054900684968044AC1F30221515C79
:1022E000C840704714000020001002405A600008E7
:1022F0000448054900684968044AC1F3C221515C99
:10230000C840704714000020001002405A600008C6
:102310000E4A51680E4801F00C03042B11D0082B13
:102320000FD10C48C1F38343C903C05C0AD551687F
:10233000084AC1F34041921E515C054A5043B0FB2C
:10234000F1F0704704494843704700000010024014
:1023500000127A003A60000800093D002DE9F84FAC
:10236000040070D02078C04DC00749D06868C0F321
:102370008100012807D06868C0F38100022809D1D4
:102380006868C00306D52868800339D560680028CE
:10239000E7D035E06068B0F5803F0BD010B1B0F504
:1023A000A02F11D0286820F480302860286820F4FD
:1023B000802002E0286840F480302860606890B196
:1023C000FFF752FE06460AE0286840F480202860A5
:1023D000F0E700BFFFF748FE801B642873D8286829
:1023E0008003F7D50CE0FFF73FFE064605E000BF8F
:1023F000FFF73AFE801B6428F0D828688003F7D4E2
:1024000020789A4E80074FF001094FF0000839D527
:10241000686810F00C0F07D06868C0F381000228CC
:1024200009D16868C00306D42868800714D52069DC
:10243000012808D110E02069B0B1C6F80090FFF77C
:1024400013FE074605E00AE1FFF70EFEC01B022857
:10245000C4D828688007F7D52868616920F0F8009B
:1024600040EAC10028600DE0C6F80080FFF7FCFDDF
:10247000074604E0FFF7F8FDC01B022823D82868B0
:102480008007F7D4207800072CD57948A169D9B105
:10249000C0F80090FFF7E8FD074604E0FFF7E4FD11
:1024A000C01B02280FD8686A8007F7D571484FF41F
:1024B000FA510068B0FBF1F0009000BF0098411E97
:1024C0000091FAD20EE080E0C0F80080FFF7CCFD6A
:1024D000074604E0FFF7C8FDC01B022875D8686AEC
:1024E0008007F7D42078400760D5E8690027C0004E
:1024F00008D4E86940F08050E861E869012700F0FD
:10250000805000905C480168C90513D40168834677
:1025100041F480710160FFF7A7FD824606E000BF2D
:10252000FFF7A2FDA0EB0A0064284ED8DBF80000FC
:10253000C005F5D5E06801280AD008B1052813D0F8
:10254000286A20F001002862286A20F0040002E0D6
:10255000286A40F001002862E06841F2883B98B1A7
:10256000FFF782FD82460BE0286A40F004002862F3
:10257000EEE700BFFFF778FDA0EB0A0159455AD8F6
:10258000286A8007F6D50CE0FFF76EFD824605E06D
:10259000FFF76AFDA0EB0A0159454CD8286A80076D
:1025A000F6D41FB1E86920F08050E861E06988B393
:1025B0006968C1F38101022944D00228C6F860800D
:1025C00004D0FFF751FD044638E034E0FFF74CFD3E
:1025D000074604E0FFF748FDC01B02282BD82868F7
:1025E0008001F7D4206AB0F5803F05D16868A16802
:1025F00020F4003008436860D4E9080108436968A2
:1026000021F4741108436860C6F86090FFF72CFD50
:10261000044606E025E000BFFFF726FD001B022868
:1026200009D828688001F7D51BE000BFFFF71CFD23
:10263000001B022802D90320BDE8F88F286880011A
:10264000F4D40EE00128F7D06868226A00F48031E3
:10265000914204D1616A00F47010884201D00120D7
:10266000EAE70020E8E700000010024000004242D4
:1026700080044242140000200070004010B5401E4B
:10268000B0F1807F01D3012010BD4FF0E0246061E4
:102690000F21601700F0ADFE0020A061072020612F
:1026A000002010BD10B590F83C20012A22D0012254
:1026B00080F83C20CA688C6822F4407222434C683F
:1026C00022F4806222430C6822F4006222430C69E7
:1026D00022F4805222434C6922F400522243C969F9
:1026E000002322F480420A4301684A6480F83C30A7
:1026F000002010BD022010BD70B590F83C20012ACA
:1027000026D0012480F83C40022280F83D20036856
:102710005A689D6822F070060A6832435A600D4B71
:1027200002689A4208D0B2F1804F05D00A4B9A4213
:1027300002D00A4B9A4204D1496825F0800319431C
:10274000916080F83D40002180F83C10084670BD43
:10275000022070BD002C0140000400400008004031
:1027600010B5040003D094F83D0010B107E001203B
:1027700010BD002084F83C00204600F01FF8022025
:1027800084F83D00211D206800F05CFC012084F8E5
:10279000460084F83E0084F83F0084F8400084F846
:1027A000410084F8420084F8430084F8440084F82F
:1027B000450084F83D00002010BD000008B5016808
:1027C0001D48B1F1804F11D01C4A91421DD1C16901
:1027D00041F00201C161C069002200F002000090D6
:1027E00011461D20FFF7ACFC1D201FE0C16941F020
:1027F0000101C161C069002200F001000090114692
:102800001C20FFF79DFC1C2010E00D4A914211D1C5
:10281000C16941F00401C161C069002200F00400F7
:10282000009011461E20FFF78BFC1E20BDE80840DB
:10283000FFF778BC08BD0000001002400004004013
:102840000008004070B5044690F83C0000250128BF
:1028500017D0012684F83C60022084F83D002068EF
:10286000826822F0770222F47F4282600868502852
:1028700038D00DDC20284FD005DC90B3102811D1C2
:102880004AE0022070BD302846D040280AD13BE003
:1028900060282FD070280DD0B0F5805F03D0B0F540
:1028A000005F12D0012584F83D60002084F83C00D0
:1028B000284670BDCB68D1E90121206800F0F8FB03
:1028C0002068816841F0770109E0CB68D1E90121F6
:1028D000206800F0EDFB2068816841F48041816050
:1028E000E1E719E0CA684968206800F095FC5021CA
:1028F000206806E0CA684968206800F09EFC6021F4
:10290000206800F0DFFBCEE7CA684968206800F065
:1029100083FC40212068F4E7226801461046F0E776
:1029200010B586B000210091019102910391134CE2
:102930000368134902221348A3420AD18B6943F06A
:1029400004038B61896901F0040104914FF4706103
:102950000BE0B3F1804F0ED18B6943F004038B6120
:10296000896901F0040104910121CDE90012694651
:102970000392FFF783FA06B010BD0000002C01405F
:10298000001002400008014070B5044690F83C0079
:1029900000260D4601280FD0012084F83C006AB1C2
:1029A000042A1DD0082A2FD00C2A3FD0012600204F
:1029B00084F83C00304670BD022070BD206800F0F5
:1029C00089FB2068816941F0080181612068816983
:1029D00021F004018161206881692A69114311E0B5
:1029E000206800F09FFB2068816941F400618161EB
:1029F0002068816921F480618161206881692A6988
:102A000041EA02218161D2E7206800F0B7FB20682B
:102A1000C16941F00801C1612068C16921F0040168
:102A2000C1612068C1692A69114311E0206800F082
:102A3000D1FB2068C16941F40061C1612068C169AE
:102A400021F48061C1612068C1692A6941EA0221DB
:102A5000C161ACE710B5040003D094F83D0010B19B
:102A600007E0012010BD002084F83C00204600F063
:102A70001FF8022084F83D00211D206800F0E2FAD2
:102A8000012084F8460084F83E0084F83F0084F872
:102A9000400084F8410084F8420084F8430084F840
:102AA000440084F8450084F83D00002010BD00007B
:102AB00008B500680649884208D10648816941F492
:102AC00000618161806900F40060009008BD000031
:102AD000002C01400010024070B5040004D094F8AE
:102AE0004100002510B106E0012070BD84F840507F
:102AF000204600F023F8242084F841002068C168B3
:102B000021F40051C160204600F0D8FB2068016923
:102B100021F4904101612068416921F02A0141615D
:102B20002068C16841F40051C1606564202084F8C8
:102B3000410084F842006563002070BD30B585B067
:102B40000024009401940294039400681B49884275
:102B500032D11B48816941F480418161816901F46E
:102B600080410491816941F0080181618069154DBE
:102B700000F0080004904020009002200190032003
:102B8000039069462846FFF779F98020CDE90004D3
:102B9000694628460294FFF771F90B48416841F0F5
:102BA000E06141F004014160002211462520FFF759
:102BB000C7FA2520FFF7B6FA05B030BD003801404E
:102BC00000100240000C014000000140FEE7000040
:102BD00030B585B000200090019002900390164817
:102BE000816941F020018161816901F02001049136
:102BF000816941F004018161816901F0040104915E
:102C0000816941F00801816180690C4D00F0080084
:102C10004FF470440490002221462846FFF71EFA24
:102C2000012002210094CDE9010103916946284663
:102C3000FFF724F905B030BD00100240000C014040
:102C400010B592B000240F941C2168461094FDF733
:102C5000DDFA202107A8FDF7D9FA2C482A4901609E
:102C60004721C0E901146421C0E90314446184616F
:102C7000FFF7F0FE08B172B6FEE70F940FA92348E4
:102C80001094FFF739FD08B172B6FEE76020CDE978
:102C900000040294039404940594002269461B489E
:102CA0000694FFF771FE08B172B6FEE7042269468A
:102CB0001648FFF769FE08B172B6FEE708226946BA
:102CC0001248FFF761FE08B172B6FEE70C226946B2
:102CD0000E48FFF759FE08B172B6FEE70794089454
:102CE00009944FF400500A94CDE90B4007A9074816
:102CF0000E94FFF7D7FC08B172B6FEE70348FFF762
:102D00000FFE12B010BD0000002C0140BC000020DE
:102D100010B58EB000240794089409940A940B947B
:102D20001C2168460C94FDF771FA1D484FF0804154
:102D3000C0E900144FF6FF71C0E9024104618461EB
:102D4000FFF70EFD08B172B6FEE74FF48050079012
:102D500007A91348FFF776FD08B172B6FEE71048E1
:102D6000FFF778FE08B172B6FEE70B940BA90C488A
:102D70000C94FFF7C1FC08B172B6FEE76020CDE904
:102D8000000402940022694605480494FFF7FCFD04
:102D900008B172B6FEE70248FFF7C2FD0EB010BDE3
:102DA0000401002010B586B0002416480094019458
:102DB00002940394049412490594C0E900144FF658
:102DC000FF71C0E9024104618461FFF7C9FC08B1E9
:102DD00072B6FEE74FF48050009069460948FFF74D
:102DE00031FD08B172B6FEE7049404A905480594C4
:102DF000FFF782FC002801D072B6FEE706B010BDD6
:102E0000000400404C01002010B586B00024164894
:102E10000094019402940394049412490594C0E927
:102E200000144FF6FF71C0E9024104618461FFF7AD
:102E300097FC08B172B6FEE74FF4805000906946E7
:102E40000948FFF7FFFC08B172B6FEE7049404A935
:102E500005480594FFF750FC002801D072B6FEE744
:102E600006B010BD0008004094010020FEE7FEE718
:102E7000F9B1042921D0082924D00C2915D03C29E6
:102E80001FD1016821F001010160416C21F4004172
:102E90004164016A21F001010162016A21F010011F
:102EA0000162016A21F480710162016A21F480519A
:102EB00006E0016A21F0010102E0016A21F010013F
:102EC00001627047016A21F48071F9E7026842F0FB
:102ED00001020260426C42F400424264B9B104292A
:102EE00019D008291CD00C290DD03C2917D1016A12
:102EF00041F001010162016A41F010010162016AC1
:102F000041F480710162016A41F4805106E0016A76
:102F100041F0010102E0016A41F0100101627047D5
:102F2000016A41F48071F9E739B1042907D0082911
:102F300007D00C2900D10264704742637047826356
:102F40007047C26370470000074A1368074AB3FB23
:102F5000F2F2521E8262826A521C4A43B3FBF2F1C1
:102F6000491EC162704700001400002040420F005B
:102F700070477047FFF77EB830B58FB0282168469C
:102F8000FDF744F914210AA8FDF740F901210804CE
:102F9000CDE900100024029402250491CDE90750E8
:102FA0004FF4E01009906846FFF7D8F908B172B6FF
:102FB000FEE70F20CDE90A054FF48060CDE90C4013
:102FC00002210AA80E94FFF7EDF8002801D072B68E
:102FD000FEE70FB030BD70477047000010B50A4CD7
:102FE0002068C00705D0094801F0CCFD6FF0010052
:102FF00020602068800705D5044801F0B9FD6FF016
:103000000200206010BD00001004004024000020D9
:1030100010B50A4C2068C00705D0094801F0B2FD80
:103020006FF0010020602068800705D5044801F09A
:103030009FFD6FF00200206010BD000010080040EE
:1030400068000020F0B50268164B174C174D4FF082
:103050008047984205D0B84203D0A04201D0A84290
:1030600003D122F070064A683243984205D0B84234
:1030700003D0A04201D0A84203D122F44074CA6810
:1030800022434C6922F08002224302608A68C262B5
:103090000A688262984201D1096901630121416194
:1030A000F0BD0000002C014000040040000800407A
:1030B00010B5846842EA032224F47F440A43224381
:1030C000826010BD826822F070020A4342F007015C
:1030D0008160704730B5036A026A22F00102026221
:1030E0004268846924F073050C682C4323F00205C0
:1030F0008B682B430A4DA8420BD123F00805CB68FF
:1031000022F440722B434D6923F0040315438A696E
:103110002A434260846149684163036230BD000014
:10312000002C014030B5026A036A23F010030362E9
:10313000436884690D6824F4E64444EA05248D68F4
:1031400022F0200242EA05120B4DA8420ED1CD68B2
:1031500022F0800242EA05124D6923F4406343EAFB
:1031600085038D6922F0400243EA85034360846150
:1031700049688163026230BD002C014030B5036AAA
:10318000026A22F4807202624268C46923F4007306
:1031900024F073050C682C438D6843EA05230C4D1D
:1031A000A8420ED1CD6823F4006343EA05234D699C
:1031B00022F4405242EA05128D6923F4806342EA08
:1031C00005124260C4614968C163036230BD0000FA
:1031D000002C014030B5046A026A22F48052026277
:1031E0004268C3690D6823F4E64343EA05238D680A
:1031F00024F4005444EA0534064DA84204D14D6934
:1032000022F4804242EA85124260C3614968016447
:10321000046230BD002C014010B5036A046A24F03A
:1032200001040462846924F0F00444EA021423F0E7
:103230000A020A438461026210BD10B5036A046A7F
:1032400024F010040462846923F0A00324F4704481
:1032500044EA023243EA01118261016210BD0000BA
:1032600005480168CA6842F40052CA600068C16833
:1032700041F02001C1607047DC01002010B50A4C0C
:10328000084A61685054491C6160FF2901DDFF2133
:1032900061600A2805D100F047FD01202070002060
:1032A000606010BD240200200000002030B50D46F3
:1032B000044600F05FF8656030BD000070B504465C
:1032C00000680169E26821F44051114301612169FC
:1032D000A0680843616908432168CA6841F20C6329
:1032E0009A430243CA6020684169A26921F440718F
:1032F000114341611E492068884202D1FEF7F8FF60
:1033000001E0FEF7E5FF00EBC00101EB0012606891
:1033100064218000B2FBF0F3B3FBF1F36FF0180609
:103320007343B2FBF0F5B2FBF0F605EB83053223F5
:1033300003EB0515B5FBF1F5B6FBF1F605F0F0056D
:1033400005EB0615B2FBF0F6B2FBF0F0B0FBF1F0C6
:103350006FF01802504306EB800003EB0010B0FB47
:10336000F1F0216800F00F002844886070BD000073
:10337000003801400849002042F21072096804E058
:10338000401C904201DD002070470B68DB431B06A8
:10339000F6D4012070470000DC01002010B5084C75
:1033A00020680068C043800609D4064801680068A8
:1033B000C0B2FFF763FF21686FF02000086010BD06
:1033C000DC01002004380140FEE7490050EAC1203A
:1033D00018BF04204A0D18BF40F0010040F2FF72F0
:1033E000B2EB515F08BF40F00200012808BF052082
:1033F00070470907090E002804DB00F1E02080F87F
:103400000014704700F00F0000F1E02080F8141D58
:10341000704700002DE9F74F144694B00021C4E92D
:1034200002111599079121F00045C9498D4206DC2A
:103430001599C4E9000117B00020BDE8F08FC54917
:10344000DFF814A3A9423CDD0799C44E0029C44FFC
:10345000C44A1599534619DD02F040F9554506D086
:10346000C14AC24B02F03AF9C4E900010AE04FF048
:10347000D352BE4B02F032F932463B4602F02EF9EF
:10348000C4E9000117B00120BDE8F08F01F01AFC7B
:10349000554506D0B44AB54B01F014FCC4E900010F
:1034A0000AE04FF0D352B14B01F00CFC32463B46E0
:1034B00001F008FCC4E9000117B04FF0FF30BDE88F
:1034C000F08FAB49A942159978DB21F00041834682
:1034D0008846A84AA84B01F0DBFE0022A74B01F06A
:1034E000F1FB01F03FFE099001F06BFE06460F462E
:1034F0009C4A534601F0CCFE43465A4601F0FCFF7D
:1035000080468A46984A994B3046394601F0C0FEBB
:103510002A0D01250B924246534601F0EDFF032D83
:10352000C4E9000139D00B98C1F30A51401A05EBE8
:1035300045111139814230DA9148C346784400EB95
:103540000510CDF80CA00C90D0E900233046394688
:1035500001F09EFE02460B460491069058460399E0
:1035600002F0BCF880468A4602460B46584603994C
:1035700002F0B4F8049B069A02F0B0F883460C9867
:1035800003913946D0E90223304601F081FE5A46C4
:10359000039B02F0A3F86D1CBDE707980028A2BFAB
:1035A000099817B0BDE8F08F616881F00041616053
:1035B000099817B04042BDE8F08FFFE784461598A0
:1035C000C1F31301C0F30A50A0F2F5304FEA6018BE
:1035D00000F01F06C6F1200013900020069007900F
:1035E00041F4801E05206D4676B1664A08EB000165
:1035F0007A4452F8213002EB8101B3404A681399B2
:1036000022FA01F1194305E05F4908EB0002794411
:1036100051F82210A1FB0E27A1FB0C131A449A4269
:1036200034BF0123002303EB070A05EB8003D3E932
:1036300001B70F448F4234BF0121002193448B44D2
:1036400011B1934502D903E0934501D2012100E075
:103650000021C3E901B7514445F82010011EA0F133
:103660000100C1DC0298059F00F10050800F12900C
:103670000298DDE90356800001F0A3FD8346284649
:103680000D9101F0B5FD6FF01D0202F089FCCDE94E
:103690000E01304601F0ACFD6FF03D0202F080FCFF
:1036A00080468A46384601F0A3FD6FF05D0202F0C5
:1036B00077FC074642465346119101F003FBDDE9D2
:1036C0000E2301F0FFFA5A460D9B01F0FBFA00258C
:1036D0000E465A4628460D9B02F000F8DDE90E23FF
:1036E00001F0FCFF4246534601F0F8FF3A46119BB9
:1036F00001F002FFDFF898A0244A534601F0C8FD0C
:1037000007468846234A244B3146284601F0C0FD2F
:103710003A46434601F0D6FA074688464FF0A8429B
:1037200053463146284601F0B3FD3A46434601F080
:10373000C9FA159A12F0004F04D0129A81F0004194
:1037400052421292C4E90001129817B0BDE8F08FFE
:10375000FB21E93F7CD90240FB21F93F7370032E26
:103760008A19A33B000040543163621A61B4D03D12
:10377000FB21394183C8C96D305FE43F0000E03F61
:10378000702B0000EC2A0000CE2A0000182D4454B3
:10379000FB21F93D3326A611460B113C2DE9FF4DC7
:1037A00021F0004807460C46B8F1795F08DA01F0CD
:1037B000D9FC002801BF0020324904B0BDE8F08DDB
:1037C0003A4623461046194601F062FD0546024678
:1037D0002D480E460B460621784400F05DF82A4637
:1037E000334601F055FDDDE9022382468B4638461B
:1037F000214601F04DFD04460F4652465B462846E1
:10380000314601F045FD22463B4601F067FF074681
:103810008A464FF0FF322846314602F0C1FB1B4A70
:1038200090450ADA3A46534601F058FF04B00022A8
:10383000BDE8F04D134B01F05FBE154A4245A8BFED
:10384000A8F500154FF00004B8BF124D22462B46D4
:1038500001F044FF0646884622462B4600200949CF
:1038600001F03CFF04460D463A4653463046414679
:1038700001F034FF04B022462B46BDE8F04D01F0C4
:103880003BBE00000000F03FA42800003333D33FCC
:103890000000E93F0000D23F2DE9F0414F1E00EB50
:1038A000C7010446D1E9000115461E4637F006025D
:1038B0000DD02A46334601F0EBFC7F1E04EBC70314
:1038C000D3E9002301F0FEF937F00602F1D1022F0F
:1038D00025D0042F13D0062F18BFBDE8F0812A464B
:1038E000334601F0D5FCD4E90A2301F0EBF92A466E
:1038F000334601F0CDFCD4E9082301F0E3F92A4670
:10390000334601F0C5FCD4E9062301F0DBF92A4671
:10391000334601F0BDFCD4E9042301F0D3F92A4673
:10392000334601F0B5FCD4E9022301F0CBF92A4675
:10393000334601F0ADFCD4E90023BDE8F04101F0CD
:10394000C1B900002DE9FF4D054621F0004084B0CB
:103950000C46B0F1795F0BDA2846FFF736FD0428F4
:1039600008BF00F075F8284608B02146BDE8F08D84
:103970002A460B46104601F08BFC06460F462A46A7
:10398000234601F085FC804626488A4632463B465F
:1039900005217844FFF780FF83461098029160B3B9
:1039A000214A224B4046514601F072FCCDE900010C
:1039B0005A4640465146029B01F06AFC82468846C0
:1039C000DDE906014FF0FF3202F0EAFA52464346C3
:1039D00001F084FE32463B4601F05AFCDDE9062345
:1039E00001F07CFEDDE9002301F078FE08B02A46F4
:1039F0002346BDE8F04D01F07FBD0B465A463046E8
:103A0000394601F045FC084A084B01F05BF9424693
:103A1000534601F03DFC08B02A462346BDE8F04D70
:103A200001F050B9E2270000495555555555C5BF1D
:103A3000012202F0B5BA002213461046114601F0E9
:103A4000FDB940F2013200204FF0E04102F0A8BA87
:103A5000024A0020110702F0A3BA000001FDFFFF97
:103A600010B50446D1E9000100F002F8206010BD55
:103A7000F8B504460D466A4600F054FA00987E30C8
:103A8000009000281EDC002213462046294601F043
:103A90002DFB17D0002140F608004FF0000006462D
:103AA0002046294601F0DCF8044640F6080006EA04
:103AB00000014FF0000034F0004004BF0220FCF78A
:103AC00015FC29E00098FF2828DB002108464FF06C
:103AD000000000F44006002213462046294601F06B
:103AE000D5FC8CBF002501250220FCF7FFFB4FF021
:103AF000FF4446B1002D0CBF4FF400004FF480008E
:103B0000B04218BF084C042108464FF00000002DB9
:103B100004BF84F00040F8BD2046F8BD2046294689
:103B2000BDE8F84001F09CB8FFFF7F7F10B5044668
:103B30000A46D4E90003194600F02BFAC4E9000153
:103B400010BD30380A2801D201207047002070478C
:103B50006FF40041401804D0012803D0022801D09E
:103B600008147047002070476FF40041401800D0DF
:103B7000002070476FF40041401805D0012802D0A2
:103B8000022801D0002070470120704770B5040062
:103B90004FF0FF3511D020783A280ED10CA12046E5
:103BA000FCF75CFB58B10CA12046FCF757FB48B171
:103BB0000BA12046FCF752FB38B1284670BD48F2F5
:103BC000010070BD48F2020070BD48F2030070BDF4
:103BD0003A535444494E00003A5354444F5554000C
:103BE0003A535444455252004FF0FF3070476FF43F
:103BF000004141184FF0FF3009D0012902D00229BD
:103C000005D103E012B100BE521EFBE70020704751
:103C100030B583B00446FCF764FB05460020CDE9CF
:103C20000000024621466846FCF796FB2846FCF752
:103C30005DFBDDE9000103B030BD30B5002403E0D9
:103C4000455C1D55491C641C9142F9DB30BD0000E8
:103C500000B5244B21F0004287B09A42DCBF00221D
:103C6000134629DD204B9A4208D140B94FF001009C
:103C7000FCF73CFBFFF7DFFE07B000BD03DBFFF7FF
:103C8000D7FE07B000BD02AAFFF7C4FB10F0030186
:103C900004BF0DF1080C9CE80F000DD00120012994
:103CA0000ED0022914D00DF1080C00909CE80F00F2
:103CB000FFF748FE07B000BDFFF770FD07B000BD7D
:103CC0000DF1080C00909CE80F00FFF73BFE05E0AB
:103CD0000DF1080C9CE80F00FFF760FD07B081F0C4
:103CE000004100BDFB21E93F0000F07F70B51546A3
:103CF0000A4604461946104602F0A8F8014601F0AB
:103D0000CFFF06462946204602F0A0F8014601F002
:103D1000C7FF314601F0F8FD01F0CAFD00F0FEFBDF
:103D2000BDE8704000F09CBF2DE9F04391B0202227
:103D300000216B4800F022F9044600200090019019
:103D400002900390049005900690079008900990C7
:103D50000A900B900C900D900E900F90601C28D044
:103D6000E2B2604B00215E48FFF767FF5EA15D484D
:103D7000FCF774FADFF86C8108F11008D0B15CA18F
:103D80005848FCF76BFAA8B15AA15648FCF766FAF6
:103D9000C8B359A15348FCF761FA002849D058A18B
:103DA0005048FCF75BFA78B357A14E48FCF756FA37
:103DB00050B38DE02022611C494800F0DFF8054631
:103DC000411C0A22464800F0D9F80646641CEAB2B3
:103DD000E1B26B464248FFF730FF6D1CF2B2E9B228
:103DE00004AB3F48FFF729FF6846FFF711FF00F0DB
:103DF00037FFC8F80000444604A8FFF709FF00F0A9
:103E00002FFF606064E000E013E00A22611C344888
:103E100000F0B4F8C2B2641CE1B26B463048FFF760
:103E20000CFF6846FFF7F4FE00F01AFFC8F8000028
:103E30004EE02022611C2A4800F0A0F80646411CF2
:103E40002022274800F09AF80546411C20222448E9
:103E500000F094F80746411C0A22214800F08EF831
:103E60008146641CF2B2E1B26B461D48FFF7E5FEE5
:103E7000761CEAB2F1B204AB1948FFF7DEFE6D1C06
:103E8000FAB2E9B208AB1648FFF7D7FE7F1C09F07B
:103E9000FF02F9B20CAB1248FFF7CFFE6846FFF7FE
:103EA000B7FE00F0DDFEC8F80000444604A8FFF7A6
:103EB000AFFE00F0D5FE606008A8FFF7A9FE00F095
:103EC000CFFEA0600CA8FFF7A3FE00F0C9FEE060E3
:103ED0004FF480710248FCF799F911B0BDE8F08306
:103EE00024020020240300204D53544550000000BC
:103EF0004D58590050454E004C494E4500000000B9
:103F00005245435400000000434952434C450000D1
:103F100010B50446C1B20248FFF7C8F9204610BDEB
:103F20000038014010B5144600222260114A21F0E9
:103F300000439342A8BF10BD53EA000208BF10BD62
:103F4000B3F5801FA8BF226807DA362202F028F8EE
:103F50006FF0350221F000432260DFF81CC06FF3E0
:103F60001E510CEB23531A4441F0FF5141F0005114
:103F7000226010BD0000F07F02FCFFFF03460846F0
:103F800002E0914204D0401C195C0029F9D1481E7E
:103F900070472DE9F04106460C4640F2FF75174682
:103FA00035EA14502BD000221346304601F09EF81B
:103FB00025D03A463046214601F0F2FF06460C462F
:103FC00035EA145010D000221346304601F08EF826
:103FD00015D10220FCF78AF9FFF73AFD0A4621467F
:103FE00062F31E01BDE8F0810220FCF77FF9FFF7C4
:103FF00028FD0A46214662F31E01BDE8F0813046E5
:104000002146BDE8F081000092B0FEF73BF8FEF7D4
:10401000B3FFFEF7DDFDBA48B8494FF00008016074
:104020004FF46131C0E901180C22C0F80C80C0E9DE
:104030000482C0F81880C0F81C80FEF74DFD08B15E
:1040400072B6FEE7FEF7AEFEFEF762FEFEF7F8FD83
:10405000FEF7DAFE6420FDF7FFFEFFF701F9A9A0E5
:10406000FCF7C8F800F07EF900F048FBC820FDF727
:10407000F3FEA3484FF480714830FCF7C7F8DFF82F
:104080009492A54C20780128FCD1A248A3A1103815
:10409000FCF7E4F800B39F48A2A11038FCF7DEF863
:1040A00068B39C48A0A11038FCF7D8F850B39948E1
:1040B0009EA11038FCF7D2F8F0B396489DA11038B5
:1040C000FCF7CCF800286BD092489CA11038FCF784
:1040D000C5F800287AD022E0D9E9000501F044FDB6
:1040E000984E01463246984800F0FEFC284601F002
:1040F0003BFD01463246954800F0F6FC0CE0D9E95C
:104100000001F7E0D9F8000001F04AFD10F0FF00CF
:10411000607012D000F04CF98DA0FCF76BF87D496F
:1041200084F800807839C1F86880C1F86C80C1F8E3
:104130007080C1F87480A5E702E000F059F9EBE760
:10414000D9E901518A46D9F80C70D9F8006000F01D
:104150004FF92946304600F0D5FB00F029F93946E1
:10416000284601F0D1FB074632463B462946104619
:1041700000F080FB5146304601F0C6FB82465246B5
:1041800039463B46304600F075FB524639465046AC
:104190002B4600F06FFB2B4650463246194611E085
:1041A000D9E90176D9F800A0D9F80C5000F020F92F
:1041B0003946504600F0A6FB00F0FAF82B4632468E
:1041C0003946504600F056FB90E0FFE7D9E900B1D0
:1041D0000791D9E9025001460B905F4801F002FCBB
:1041E0000C9000200146FFF733FD07468A4628461B
:1041F00001F05EFB0E4605463A465346CDE9040102
:1042000001F046F882460F46584601F051FB5246EF
:104210003B46CDE9080100F055FD00F021FD01907D
:104220000020014600F02AF92A46334601F030F812
:1042300005460E46079801F03BFBCDE906012A46EC
:10424000334600F03FFD00F00BFD824600F0D0F851
:104250005146019800F056FB00F0AAF800200746EE
:104260000D903CE0DDE90C1001F04EFB3B490D9058
:1042700001F016FD01F01CFB0022394B00F0DEFDC1
:104280008B460546FFF7E4FC02460B46DDE90401D8
:1042900000F0FEFF02460B46DDE9080100F012FDCA
:1042A00000F0DEFC06462846594600F0E7F80246D4
:1042B0000B46DDE9040100F0EBFF02460B46DDE9A9
:1042C000060100F0FFFC00F0CBFC05460346324639
:1042D0005146019800F0CEFAAA467F1C0196384656
:1042E00001F07EFC0B9901F0A7FCBBD300F080F835
:1042F0000021084600F006FB0EE7000000380140F0
:10430000DC010020434E43207374617274696E6750
:104310002E2E0A0034030020000000204D53544587
:10432000500000004D58590050454E00524543542E
:10433000000000004C494E45000000004349524334
:104340004C450000CDCCCC3F24000020680000206C
:10435000444F4E450A0000000000B443DB0F4940C3
:10436000008066400E4810B500680E49B0FBF1F1C0
:104370004FF08040491E81620B4C0021C4E90201CC
:1043800061600A4921603221FEF7DEFDD4E90201B5
:10439000FEF79CFD20462168BDE8104000F048B8BB
:1043A0001400002040420F00AC0000200000A0C11B
:1043B00070B50C4C0C4D2068A84211D90B484FF039
:1043C0007E5620600146074800F032F80420FDF7D1
:1043D00043FD3146206801F097FA2060A842F1D2EF
:1043E00070BD0000AC0000200000A0C00000A0C113
:1043F00070B50C4C0C4D2068A84211D20B484FF000
:104400007E5620600146074800F012F80420FDF7B0
:1044100023FD3146206801F019FD2060A842F1D942
:1044200070BD0000AC0000200000A0C10000A0C0D2
:1044300010B5044608462160616801F065FA0B4931
:1044400001F062FA01F034FA094A0A4B00F020FF49
:104450000022094B00F036FC00F084FE82B2D4E961
:104460000201BDE81040FEF75FBD000000003442CD
:104470008EE3388EE338264000408F4000B5254B50
:1044800021F0004287B09A4203DC002213460092DA
:104490002BE0214B9A4208D140B94FF00100FBF7C5
:1044A00025FFFFF7C8FA07B000BD03DBFFF7C0FA2E
:1044B00007B000BD02AAFEF7ADFF10F003014FF0F8
:1044C00001000DD0012914D002291AD00DF1080CD9
:1044D0009CE80F00FFF762F907B081F0004100BDD2
:1044E0000DF1080C00909CE80F00FFF72BFA07B0C5
:1044F00000BD0DF1080C9CE80F00FFF74FF907B065
:1045000000BD0DF1080C00909CE80F00FFF71AFAAF
:10451000E2E70000FB21E93F0000F07F2DE9F041D8
:1045200006460F4600F0F4FF041E0D4618BF01209A
:10453000284320F00040C0F17F6000F1E040C00F50
:104540000ED0301C18BF0120384320F00040C0F1CD
:104550007F6000F1E040C00F04BF0120FBF7C6FE02
:1045600020462946BDE8F08110B50446816805481B
:10457000FEF77EFCA08A002281B22069BDE81040CF
:10458000FDF76CBD002C014070B504460E480D4689
:10459000006801F03DFB294601F082FB01F000FBC1
:1045A000094D82B22C3D2846A168FEF7BDFC284685
:1045B000A168FEF78BFCA08A002281B22069BDE8C9
:1045C0007040FDF74BBD00002C2C014070B5044637
:1045D0004FF07E5001F03AFC05460E48006801F0AD
:1045E00017FB294601F05CFB01F0DAFA094D82B2B3
:1045F0002C3D2846A168FEF797FC2846A168FEF7E7
:1046000065FCA08A012281B22069BDE87040FDF7F7
:1046100025BD00002C2C014010B50446C16805489A
:10462000FEF726FC208B002281B22069BDE81040F5
:10463000FDF714BD002C014070B504460E480D4630
:10464000006801F0E5FA294601F02AFB01F0A8FA1A
:10465000094D82B22C3D2846E168FEF765FC2846EC
:10466000E168FEF733FC208B002281B22069BDE8AF
:104670007040FDF7F3BC00002C2C014070B50446DF
:104680004FF07E5001F0E2FB05460E48006801F055
:10469000BFFA294601F004FB01F082FA094D82B20B
:1046A0002C3D2846E168FEF73FFC2846E168FEF70E
:1046B0000DFC208B012281B22069BDE87040FDF71E
:1046C000CDBC00002C2C0140C169491EC1610129EB
:1046D00001DA1021C161016A491E0162017F00F007
:1046E00099B9C169491CC161112901DB0121C1616D
:1046F000016A491C0162017F00F08CB92DE9F0418B
:10470000544900200860544941F28832514B0968ED
:104710001B1DB1FBF2F2521E1A604E4A0C321060A1
:10472000121D1060121D1060121D10604B4A4C4D7E
:10473000B1FBF2F303EB8304431E03EB44042C6050
:10474000B1FBF2F1474A01EB810103EB410111603A
:10475000454D012104232970414905F144042839BC
:10476000696342494A14C5E904128A14AA61394AA4
:10477000283A6A60C5E9023002232370394B283B8E
:1047800063632161D913A161491061610C21E1606A
:104790000821C4E901212862686285F83800206296
:1047A000606284F838000126F1B22F4800F032F937
:1047B0002D48F1B2443000F02DF90A20FDF74CFBF2
:1047C000761C112EF0DB1026F1B2274800F022F9FA
:1047D0002548F1B2443000F01DF90A20FDF73CFBFA
:1047E000761E012EF0DA204800F003FA1E4844300D
:1047F00000F0FFF94FF4FA70FDF72EFB1C4E4FF45A
:104800002F7732463946184800F072F9164832467A
:104810003946443000F06CF995F838000128FBD097
:1048200094F838000128F7D0324600210E4800F0F5
:104830005FF90D4832460021443000F059F900BFBD
:1048400095F838000128FBD094F838000128F7D0FB
:10485000BDE8F081282C01401400002040420F00E8
:10486000280400402808004024000020000C0140DB
:10487000CDCCCC3F2DE9F047984615460F4604466F
:10488000FFF734FA01F070F906462946204601F098
:10489000D3FA81463946404601F0D8FA8246A0460E
:1048A000304600F08EFC05460C46484601F000F804
:1048B0002A46234600F0C2FA00F0D2F9814650465B
:1048C00000F0F6FF2A46234600F0B8FA00F0C8F9D7
:1048D00005463946404600F015F800240EE04946EA
:1048E000404601F011F880462946384601F00CF8A0
:1048F00007460146404600F005F8641CB442EEDB72
:10490000BDE8F0872DE9F05F3D4C0D46214601F0F2
:1049100069F801F029F980462146284601F062F83D
:1049200001F022F9DFF8DCA08146DAF82010A8EBCC
:10493000010001F055F90AF1440B0446DBF82010A0
:10494000A9EB010001F04CF92F4E304935468C425D
:1049500001D384F00044884201D380F00040074630
:104960000146204601F068F919D214F0FF4F2FD00C
:10497000204600F09DFF06460C46384600F098FFA2
:1049800002460B464FF02040214900F081FC3246A0
:10499000234600F053FA00F063F9064618E017F0DA
:1049A000FF4F15D0384600F083FF05460F462046DE
:1049B00000F07EFF02460B464FF02040144900F005
:1049C00067FC2A463B4600F039FA00F049F90546F3
:1049D000324641460B4800F08BF80A482A464946C1
:1049E000443000F085F850464FEA0B0190F838202B
:1049F000012AFBD091F83820012AF7D0BDE8F09FBA
:104A0000CDCC4C3D24000020CDCCCC3F000080809C
:104A10009999F93F2DE9F0410D4606464FF07E5435
:104A20004FF07C57112956D2DFE801F055090F14D9
:104A30001A1F2123292F353E404547494F00214663
:104A40003046FFF7A1FD00212AE021463046FFF75E
:104A50009BFD18E0214604E03046FFF7EDFD40E005
:104A600039463046FFF790FD07E00021F9E7394667
:104A700000E021463046FFF7A9FD2146ECE721463C
:104A80003046FFF7A3FD3946E6E721463046FFF7FB
:104A90009DFD0021E0E721463046FFF797FD18E035
:104AA0003046FFF7EBFD1CE0214600E0394630467A
:104AB000FFF78CFD07E00021F9E7394600E02146C9
:104AC0003046FFF761FD2146EAE721463046FFF711
:104AD0005BFD3946E4E73046FFF746FD3046FFF719
:104AE0009BFDF561BDE8F081036A1944AFF30080D6
:104AF00010B504464FF42F70814201DD014602E0FB
:104B0000002900DA002161621146204600F00AF80F
:104B1000D4E90801814204D02046BDE8104000F0ED
:104B20003FB810BD10B504460D480A46814200DA70
:104B300002460C49104601F0B3F80B4900F052FF51
:104B400001F02EF8616BC862646BE06A01F060F8F6
:104B5000064901F07BF901F023F8606310BD000005
:104B6000CDCCCC3F00007A44000020410000164329
:104B7000D0E90812914204D001DDFFF7A5BDFFF78F
:104B8000B0BD704710B5044600F033F8D4E9080111
:104B9000884204D12046BDE8104000F017B810BD8F
:104BA000426B00215162416BCA6842F00102CA6047
:104BB000416BCA6842F00202CA60416B0A6842F067
:104BC00001020A60012180F838107047416BCA6801
:104BD00022F00102CA60416BCA6822F00202CA6078
:104BE000416B0A6822F001020A60002180F8381047
:104BF000704710B504460021FFF7C6FC2046BDE80B
:104C000010400021FFF718BD10B500290AD0087820
:104C1000002807D005487844FBF720FB002801D086
:104C2000002010BD0248784410BD00004E16000060
:104C30004616000010B500290AD00878002807D0D1
:104C400005487844FBF70AFB002801D0002010BD7E
:104C50000248784410BD00003E16000036160000E1
:104C600021F00042A2F16052B2F5801F01F0004332
:104C700028BFD2F17F6C0BD95FEA001C43EAC20265
:104C800042EB507018BF704728BF20F001007047FA
:104C9000B2F5801FBCBF184670474FEA410C1CF5A7
:104CA000001F02D2084601F0C2B870B500F09AFBAE
:104CB00000000089FFF7F6BF4FF00040A0F580002C
:104CC0007047000010B591EA030F48BF83F000431E
:104CD00000F10C85841A71EB030C05D2121943EB19
:104CE0000C03001B61EB0C01DFF824E14FEA1154C7
:104CF000A4EB135C1EEA430F18BF9EEA445F73D017
:104D000023EA0E03DCF1200E21EA045143F4801360
:104D100032D322FA0CFE10EB0E0023FA0CFE41EB0C
:104D20000E01CCF1200E03FA0EFE10EB0E0051F135
:104D30000001B1F5801FCCF1200E32D201EB0451FD
:104D400012FA0EF2BDE8104058BF7047401C38BF41
:104D50005FEA420218BF7047002814BF20F001002C
:104D600041F100014FEA410313F5001F38BF7047BE
:104D7000A1F1C04100F084BB012A43EB0302ACF176
:104D8000200CDCF11F0E32BF4FF0000E23FA0CF3A3
:104D900010EB030041EB0451B4EB115FD0D0A1EB59
:104DA000045101F5801149085FEA300001EB04511C
:104DB0000ED350F1000038BF12FA0EFE08D1BDE844
:104DC0001040C9E7401C38BF5FEA4202CAD1C3E7BE
:104DD000BDE810404FEA410313F5001F38BF70478C
:104DE000A1F1C04100F04CBB9EEA445F08D011EA3B
:104DF0005E0FBDE8104004BF01F000410020704785
:104E0000BDE8104070B500F0EDFA00BF64FBBE3E97
:104E10000000E0FF02494FF0000001F08FB800BF32
:104E20000000F87F491058BFC1F140415B1058BFE6
:104E3000C3F140438B42EFF3008070472DE9C0413E
:104E400030B4DFF8A0C23CEA111418BF3CEA1314D6
:104E500000F0EC8081EA03051CEA111444EAD574E1
:104E600018BF1CEA131500F0C780A4EB05044FF02F
:104E7000004545EAC12145EAC32341EA505143EACE
:104E8000525304F17F74994204F500344FEAC02074
:104E90004FEAC22208BF904200F09C804FEA13659F
:104EA0000FF24016765D4FEA134506FB05F7C7F192
:104EB000807706FB07F74FEAD737A7FB03687642F0
:104EC000C8F58038A7FB06CE38BFA8F1010807FB5C
:104ED00008E64FF0000EA6FB028CE6FB03CEDCF1E9
:104EE000000CCEF1004E38BFAEF1010EA6FB0C58FF
:104EF0004FF000074FF00005E6FB0E87A1FB08C648
:104F0000A0FB07CE16EB0E0645F10005E1FB076599
:104F100015F1E04E7EBFA4F580345FEA46066D4190
:104F200016F1800745F100054FEA17274FEA06669C
:104F300047EA0567A6F1DE46B6F1805F4FEA152520
:104F40001FD9384624F0010C05EBC471BCF1FE6F8B
:104F500001EB0C1102D8F0BCBDE8008124425CBF1B
:104F600001F5801E9EEAC47F02D4F0BCBDE800813A
:104F7000244238D4F0BCA1F1C041BDE8004100F0AA
:104F80007FBA4FEAD22242EA43524FEAD323A7FB29
:104F900002864FEAD02040EA415007FB03661EEA32
:104FA0000E0F4FEAD12105FB026658BFA6EB005653
:104FB000B6EB00564FEA520E4EEAC37E18EB0E0EC9
:104FC00056EB530EBDD518EB02085E417F1C55F120
:104FD0000005B6E74FF480154FF000074FF00006CC
:104FE0004FF00008ADE7F0BC4FF0000001F1C04108
:104FF00001F00041BDE8008111EA0C1F0CEA131515
:1050000000D00CE013EA0C1F00F025804FF00000E8
:10501000F0BC81EA030101F00041BDE80081F0BC71
:10502000BDE8004181EA030100F02ABAF0BCBDE806
:10503000004170B500F0D6F9097EFC3E00F007B8DB
:1050400081EA03014FF0000001F00041704781EA5E
:10505000030100F015BAF0BCBDE800414FF00000BC
:1050600021497047FFFDFBF9F7F5F4F2F0EEEDEBA7
:10507000E9E8E6E4E3E1E0DEDDDBDAD8D7D5D4D356
:10508000D1D0CFCDCCCBCAC8C7C6C5C4C2C1C0BFA2
:10509000BEBDBCBBBAB9B8B7B6B5B4B3B2B1B0AFA8
:1050A000AEADACABAAA9A8A8A7A6A5A4A3A3A2A18C
:1050B000A09F9F9E9D9C9C9B9A9999989797969547
:1050C00095949393929191908F8F8E8E8D8C8C8BE3
:1050D0008B8A89898888878786858584848383826B
:1050E000828181800000FF070000F87F51EA030CF5
:1050F00017D41CF5801F58BFBCF5801F00F1068037
:10510000994218BF704708BF9042704707D711F502
:10511000801F58BF13F5801F19D4994270478942E8
:1051200070471CF5801F08D5BCF5801FF7D58B4252
:1051300018BF704708BF824270474FF4001C1CEB39
:10514000410F38BF1CEB430F01D28B42704770B543
:1051500000F048F9922449004FF000514FF080537D
:10516000FFF760BE4FEA41034FEA5353A3F5806354
:10517000D3F11E03C8BFD3F1210C0CDD4FF0004268
:1051800042EAC12242EA505232FA03FC8CEAE17C44
:10519000ACEBE1707047102BC4BF0020704703F5E3
:1051A000787CBCF1FF3F04D06FF0004282EA21001E
:1051B000704770B500F016F94992248000207047BE
:1051C000F2E710F0004248BF4042B0FA80F310FA14
:1051D00003F10AD0C3F11D0303F580634FEA415088
:1051E00002EB035202EBD12170474FF000007047F1
:1051F000B0FA80F310FA03F10AD0C3F11D0303F5EE
:1052000080634FEA41504FEA035202EBD1217047CD
:105210004FF000007047000051EA030C17D41CF552
:10522000801F58BFBCF5801F00F10680994218BF4F
:10523000704708BF9042704707D711F5801F58BFCD
:1052400013F5801F19D499427047894270471CF5A5
:10525000801F08D5BCF5801FF7D58B4218BF70475B
:1052600008BF824270474FF4001C1CEB410F38BF4F
:105270001CEB430F01D28B42704770B500F0B2F8BF
:10528000922449004FF000514FF08053FFF7CABD00
:10529000DFF848C170B51CEA111E1EBF1CEA1315C9
:1052A0009EEA0C0F95EA0C0F00F06F8081EA030470
:1052B00023EA4C134EEAD47E21EA4C1141F48011CA
:1052C00043F48013AE44A1FB024CA0FB0365AEF196
:1052D0007F7E361955EB0C05A1FB034C4CF1000306
:1052E000A0FB021C16EB0C06654153F100030942BA
:1052F00018BF46F0010613F4007F0BD14FEA0331CB
:105300004FEA0530340341EA155140EA16506FF078
:1053100003020AE04FEAC3214FEAC520F40241EA42
:10532000555140EA56506FF0020202EB2E4201EB5B
:10533000025585EACE710AD05FEA440C18BF24F00A
:10534000004450F1000041F1000120EAD47040F225
:10535000FE7C624500D270BDA84214BF4FF080446D
:105360004FF04044002E08BF0024BEF1806FA8BF5C
:10537000A1F1C041BDE8704080F282804FF0000092
:1053800001F1C04101F0004170479EEA0C0F0CEAA8
:10539000131518BF95EA0C0F06D04FF0000081EAF4
:1053A000030E0EF0004170BD00F01CF88900013EB4
:1053B00000F007B800F009B84FEA430C5FEA5C5C04
:1053C00008D081EA030100F05BB84FEA410C5FEAC4
:1053D0005C5CF6D14FF00000014970470000FF0708
:1053E0000000F87F0EF1020E2EF0030E5EF8046B43
:1053F000364205D4012A43EB030515F5001F12D8E8
:10540000012841EB010C1CF5001F0CD80ED14FEA0E
:10541000D17C15F5001F0CEB4C0C0CF1020C08BFF5
:105420004CEBD37C04E04FF0080C01E04FEAD37C56
:105430000CEB4C0526FA05F606F00706B6F1040C4F
:1054400006D20EEB860CBDE870404CF0010C6047B4
:10545000DFE80CF0090B02024FF000414FF00000B2
:10546000A1F5002170BD19461046012851EB010439
:1054700018BFD4F5001484BF002001F0004170BDB6
:105480000808A0F500114FEA3101704753EA010CFA
:1054900017D41CF5801F58BFBCF5801F00F1068093
:1054A0008B4218BF704708BF8242704707D713F579
:1054B000801F58BF11F5801F19D48B4270479B4243
:1054C00070471CF5801F08D5BCF5801FF7D59942A1
:1054D00018BF704708BF904270474FF4001C1CEB88
:1054E000430F38BF1CEB410F01D2994270470FB4F4
:1054F0000CBC03BCFFF7C1BE91EA030F10B581F0ED
:1055000000413FF5E7AB83F0004300F0EFB8000047
:105510002DE9F04101F5801CBCF5001FC0F2C380ED
:105520004FEA115C21EA0C510CF1FD0C41F48011A1
:105530005FEA5C0C0CF5C07C01D3400049413DA4FE
:10554000890241EA905187028E0E0A0CA45D04FB89
:1055500004F602FB06F6C6F14046A4FB0662F60D11
:1055600046EA422606FB06F4A4FB01235242C3F19D
:10557000404338BF5B1EA6FB02420024E6FB032427
:10558000D20B42EA4446A6FB0623A1FB02E2A3FBA0
:1055900007E4A4184FF0000252F10002E3FB0142BD
:1055A0006442C2F1404E38BFAEF1010EA6FB0423A7
:1055B0004FF00002E6FB0E32A2FB03464FF0000460
:1055C000B61954F10004E2FB0264A1FB06E6A4FB59
:1055D00007E816EB08064FF0000858F10008E4FB56
:1055E00001687642C8F1405838BFA8F10108A2FB13
:1055F00006E4A3FB08E52D194FF0000454F1000464
:10560000E2FB0854A1FB05E6A7FB04E818EB06083B
:105610004FF0000656F10006E1FB048618F1200564
:1056200056F10006A809A8F11B08B10908F03F08C7
:10563000B8F10A0F40EA86601CD901EB0C51BDE8B5
:10564000F08100BFFCF5EEE8E2DDD8D3CFCBC7C3D5
:10565000C0BDB9B6B4B1AEACA9A7A5A3A19F9D9B8F
:105660009A9896959392908F8D8C8B898887868552
:1056700084838281A0FB006800FB01F208EB4208F2
:10568000B8EB872807D5341858EB0104D5D5401C52
:1056900051F10001D1E7341A78EB0104CDD4401E5A
:1056A00071F10001C9E75FEA4C0C5FEA9C5C0DD127
:1056B00005D34FF0000001F00041BDE8F081BDE8E6
:1056C000F04170B5FFF78EFE6DDBFFBEBDE8F04127
:1056D0004FF00000004970470000F87F10B591EAD4
:1056E000030F48BF83F000433FF5F4AA841A71EB1F
:1056F000030C07D212198CF0004C43EB0C03001B77
:1057000061EB0C01DFF8A4E14FEA1154A4EB135C48
:105710001EEA430F18BF9EEA445F00F0B08023EA00
:105720006E03524221EA0451C3EB6E0338BF5B1E85
:10573000DCF1200E25D322FA0CFE10EB0E0043FA0A
:105740000CFE41EB0E01CCF1200E03FA0EFE10EB25
:105750000E0051F10001CCF1200E29D412FA0EF204
:1057600001EB0451BDE8104058BF7047401C1CBFFE
:10577000B2F1004F704700280CBF491C20F0010017
:10578000704712EB020E43EB030218BF4FF0010EFD
:105790004EEA4202ACF1200CDCF11E0E54D943FA61
:1057A0000CFE10EB0E0051F1FF31CCF11E0ED5D5E1
:1057B0000EF1010E12FA0EFE404141EB010101EB28
:1057C000445C5FEA5C5C10D910EBDE7001EB0451C5
:1057D00038BFBEF1004FBDE8104018BF7047002829
:1057E0000CBF491C20F00100704730D24FEAD42C86
:1057F00011F5001124F400641BD0B1FA81F20B3AC8
:10580000A41AA41ED2F12003914030FA03F31943E5
:10581000904001EBCC71002C01EB0451BDE810402D
:10582000A8BF704701F1C0414FF0000001F00041F6
:105830007047B0FA80F310FA03F100D110BDE41AFA
:10584000173C4805C90AE4E701EB045110BD4910B3
:1058500001EB0451BDE810404FEA300002E04FF088
:10586000000170474A0008BF0042F8D0B2F5001F9F
:1058700028BF704701F000414FF0000070479EEADA
:10588000445F07D011EA5E0FBDE8104004BF00215D
:1058900000207047BDE8104070B5FFF7A3FD00BFC2
:1058A00040DFF63E83F00041104670470000E0FF05
:1058B00043004FEAD30C4FEA3C0C43401FBF400764
:1058C0000CF1605113F0FE4F70471CF0006F03D1D4
:1058D00000200CF0004170470CF0004343EA507088
:1058E00010B540EACC0000F05CFA00BF0000009266
:1058F0004FEA0001FFF7C4BD4FF000414FF0000038
:10590000A1F500217047000090EA010F48BF81F027
:10591000004100F1A282421A3CBF801A89184FEA66
:10592000D0524FF07F4C1CEA410FA2EBD15318BF6D
:105930009CEA026F00F03B804FF0004C4CEA0020E4
:105940004CEA012121FA03FC10EB0C0C1ED202F1EF
:10595000FF325FEA1C2040EBC25038BF70471CF09A
:105960007F0F4FEA400C18BFBCF17F4F38BF704724
:10597000C3F12003994008BF20F00100BCF17F4F24
:1059800038BF7047A0F1C04000F051BA4FEA3C0068
:10599000000A40EBC25028BF1CF0FF0F4FEA400C3A
:1059A000E6D018BFBCF17F4F38BF7047EAE79CEAEA
:1059B000026F05D010EA5C0F08BF00F0004070478E
:1059C00010B500F0EEF900BF64FBBE3E401058BFBA
:1059D000C0F14040491058BFC1F140418142EFF34E
:1059E000008070474FF47F0C1CEAD0121EBF1CEAE7
:1059F000D11392EA0C0F93EA0C0F00F0858090EA25
:105A0000010F48BF42F4807240F4000C41F40000E2
:105A10002CF07F4120F07F4000B58142A2EB0302D1
:105A20000FF2081CACEB504EC0F100009EF800E0F5
:105A30004FEA4E0E00FB0EFC38BF49004FEA2C1C0B
:105A400002F5FA020CFB0EF34FEACE1E4FEA112CC0
:105A50004FEAC1210EEB635E42EB22420EFB0CFCCF
:105A60004FEA1C5300FB03114FEA112C4FEA01319E
:105A70000EFB0CFC4FEADC4C00FB0C11C14228BFB2
:105A800009184CEB03335DF804EB10EB410143EBD9
:105A9000C250B2F57C0F38BF704729D512F0F00F15
:105AA0001CBF00F1C04000F00040704700818283BD
:105AB0008485868788898B8C8D8E8F91929395961D
:105AC00097999A9C9D9FA0A2A3A5A7A8AAACAEB0A7
:105AD000B2B3B5B7B9BCBEC0C2C5C7C9CCCED1D4AC
